:0A0000000232552D0020008F9922D6
:03000B0002399D1A
:03001300023D08A3
:03001B000236AA00
:10002300023A2FF583E0FF9009F87408F0D2839029
:050033004033EFF02254
:10003B0002386453FCFE904053E04401F0D280221E
:03004B000234DBA1
:0F00530002111290404FE04402F0E04401F0220D
:10006300022C8F0203AEE86480F8E933E8336011B1
:100073000460F0ED33EC337009E8FCE9FDEAFEEBD4
:10008300FF220460DED3EB9FEA9EE99DE8C2E78C82
:10009300F0C2F795F0400CE8CCF8E9CDF9EACEFAD6
:1000A300EBCFFB12037985D0F05804700320D5B34E
:1000B300E80470075002B2D50203B892D5EC04608D
:1000C300F7E4CCC0E0C398F8603B94186008400D97
:1000D300D0E0FB020390E4FBFAC9FC8028E830E49B
:1000E30006E4C9FBE4CAFCE830E305E4C9CACBFC77
:1000F300E854076010F8C3E913F9EA13FAEB13FBAA
:10010300EC13FCD8F130F52FC3E49CFCEF9BFFEE1E
:100113009AFEED99FDD0E0FBEF4E4D4C701222DBC1
:10012300030203B5EC2CFCEF33FFEE33FEED33FD9E
:10013300ED30E7EB020390EF2BFFEE3AFEED39FDD6
:10014300D0E0FB50130BBB00030203B8ED13FDEE2D
:1001530013FEEF13FFEC13FC020390EC4D6011E868
:10016300497017ED33EC3304600DE4FCFFFEFD2210
:10017300E933E8330470F80203AE120379580460DC
:1001830009E4CC248150062850090203B82840030F
:100193000203B5C0E0EB4A7044B98006D0E0FB022D
:1001A30003A4EF4E701CBD8008EBFFEAFEE9FD805F
:1001B300EBE98DF0A4FEE5F0020247E9CDF9EAFE92
:1001C300EBFFEF89F0A4FCE5F0CE89F0A42EFFE469
:1001D30035F0CD89F0A42DFEE435F08067EF4E7045
:1001E30005BD80D780C3EF8BF0A4ACF0EE8BF0A4F9
:1001F3002CFCE435F0F8EF8AF0A42CE5F038FCE4AD
:1002030033CB8DF0A42CFCE5F03BF8EE8AF0A42C64
:10021300FCE5F038F8E433CF89F0A42CFCE5F038A2
:10022300CF3400CE89F0A42FFFE5F03EFEE433C9BE
:100233008DF0A42EFEE5F039CD8AF0A42FFFE5F072
:100243003EFEE43DFD33D0E0FB50070BBB000F0245
:1002530003B8EC2CFCEF33FFEE33FEED33FD02036A
:10026300900203B8EC5D046005E8590470030203CF
:10027300AE120379580460F6EC4860F2EC7004FDAA
:10028300FEFF22C860DB2481C85009C39860025076
:10029300060203B59850CAF582E9294B4A7005ABAB
:1002A300820203A475F0007C1A7880C3EF9BEE9A58
:1002B300ED99400DC3EF9BFFEE9AFEED99FDE842E9
:1002C300F0DC23ACF0D0E0FFD0E0FED0E0FDAB8269
:1002D30020E7101BEB60BAEC2CFCEF33FFEE33FE90
:1002E300ED33FD020390E803F830E705C0F075F045
:1002F30000EF2FFFEE33FEED33FD40B830E7C28051
:10030300AA75F020800E75F010800575F0087D0049
:100313007E007F003392D530D503120674EC334050
:1003230010EF33FFEE33FEED33FDEC33FCD5F0ED90
:1003330022E5F0247EA2D513CC92E7CDCEFF22EDA9
:10034300D2E7CD33EC3392D524814006E4FFFEFDA2
:10035300FC22FCE4CFCECDCC24E0501174FF80ED21
:10036300C3CC13CCCD13CDCE13CECF13CF0470F0AB
:1003730030D5DE020674E9D2E7C933E833F892D503
:10038300EDD2E7CD33EC33FC5002B2D522EC30E7AB
:10039300100FBF000C0EBE00080DBD00040BEB6078
:1003A30014A2D5EB13FCED92E7FD2274FFFCFDFED6
:1003B300FF22E480F8A2D574FF13FC7D80E480EF74
:1003C300BB010689828A83E0225002E722BBFE0238
:1003D300E32289828A83E49322BB010CE58229F517
:1003E30082E5833AF583E0225006E92582F8E62286
:1003F300BBFE06E92582F8E222E58229F582E58340
:100403003AF583E49322BB010FF8E58229F582E5EF
:10041300833AF583E028F0225009C58229F8E58262
:1004230026F622BBFE09C58229F8E22582F222F8CC
:10043300EA2583F583E9932822F8BB010DE5822998
:10044300F582E5833AF583E8F0225006E92582C870
:10045300F622BBFE05E92582C8F222EF8DF0A4A89F
:10046300F0CF8CF0A428CE8DF0A42EFE22BC000B7E
:10047300BE0029EF8DF084FFADF022E4CCF875F0D7
:1004830008EF2FFFEE33FEEC33FCEE9DEC984005B6
:10049300FCEE9DFE0FD5F0E9E4CEFD22EDF8F5F07C
:1004A300EE8420D21CFEADF075F008EF2FFFED3384
:1004B300FD4007985006D5F0F222C398FD0FD5F002
:1004C300EA22C5F0F8A3E028F0C5F0F8E58215822A
:1004D30070021583E038F022A3F8E0C5F025F0F0B0
:1004E300E582158270021583E0C838F0E822BB016B
:1004F3000A89828A83E0F5F0A3E022500687F00997
:10050300E71922BBFE07E3F5F009E3192289828A82
:1005130083E493F5F074019322BB0110E58229F57E
:1005230082E5833AF583E0F5F0A3E0225009E9255B
:1005330082F886F008E622BBFE0AE92582F8E2F596
:10054300F008E222E5832AF583E993F5F0A3E99322
:1005530022BB010789828A830204C5500B09C5F0B7
:1005630027F7C5F01937F722BBFE0D09F8E325F08D
:10057300F3C5F019E338F322F889828A837401936F
:1005830025F0C5F0F8E4933822BB010DC58229C5D7
:1005930082C5833AC5830204C55011C58229F80870
:1005A300E5F026F618F5F0E58236F622BBFE11C516
:1005B3008229F808E225F0F5F0F218E23582F222FA
:1005C300F8E58229F582E5832AF58374019325F002
:1005D300F5F0E4933822BB010A89828A83F0E5F0BF
:1005E300A3F0225006F709A7F01922BBFE06F3E594
:1005F300F009F31922F8BB0111E58229F582E5839D
:100603003AF583E8F0E5F0A3F0225009E92582C822
:10061300F608A6F022BBFE09E92582C8F2E5F00838
:10062300F222E88FF0A4CC8BF0A42CFCE98EF0A48A
:100633002CFC8AF0EDA42CFCEA8EF0A4CDA8F08B60
:10064300F0A42DCC3825F0FDE98FF0A42CCD35F0A6
:10065300FCEB8EF0A4FEA9F0EB8FF0A4CFC5F02E37
:10066300CD39FEE43CFCEAA42DCE35F0FDE43CFCA0
:1006730022C3E49FFFE49EFEE49DFDE49CFC22EB89
:100683009FF5F0EA9E42F0E99D42F0EC6480C86475
:10069300809845F022EB9FF5F0EA9E42F0E99D42F7
:1006A300F0E89C45F022E86010ECA2E713FCED13A0
:1006B300FDEE13FEEF13FFD8F022BB010789828AF8
:1006C300830208295005E9F802081DBBFE05E9F875
:1006D30002083589828A83020841BB010DE582291C
:1006E300F582E5833AF5830208295007E92582F864
:1006F30002081DBBFE07E92582F8020835E58229B9
:10070300F582E5833AF583020841BB010789828AB2
:100713008302076B5005E9F8020887BBFE05E9F879
:1007230002089322BB010DE58229F582E5833AF5A0
:100733008302076B5007E92582F8020887BBFE078F
:10074300E92582F802089322BB010789828A830282
:10075300085E5005E9F8020851BBFE05E9F80208F6
:100763006A89828A83020877ECF0A3EDF0A3EEF0A6
:10077300A3EFF022A8828583F0D083D08212078E64
:1007830012078E12078E12078EE473E493A3C583B8
:10079300C5F0C583C8C582C8F0A3C583C5F0C583AA
:1007A300C8C582C822BB010789828A8302077750A2
:1007B30005E9F802089FBBFE05E9F80208B822BB69
:1007C300010DE58229F582E5833AF5830207775027
:1007D30007E92582F802089FBBFE07E92582F80294
:1007E30008B822F5F0C582A4C582C5F0C583A42547
:1007F30083F58322D083D082F8E49370127401933B
:10080300700DA3A393F8740193F5828883E4737442
:1008130002936860EFA3A3A380DFE6FC08E6FD086C
:10082300E6FE08E6FF22E0FCA3E0FDA3E0FEA3E072
:10083300FF22E2FC08E2FD08E2FE08E2FF22E49365
:10084300FC740193FD740293FE740393FF22E6FB91
:1008530008E6F908E6FA08E6CBF822E0F8A3E0F99F
:10086300A3E0FAA3E0FB22E2FB08E2F908E2FA08BC
:10087300E2CBF822E493F8740193F9740293FA74C7
:100883000393FB22ECF608EDF608EEF608EFF622EA
:10089300ECF208EDF208EEF208EFF222D083D082F8
:1008A300E493F608740193F608740293F60874034C
:1008B30093F6740473D083D082E493F208740193A3
:1008C300F208740293F208740393F2740473410AF6
:1008D3000A00420A0B0BB8540854000001F403E861
:1008E30008980B5410CC170C1C841EDC216662285C
:1008F30000000000000000000000002F00000000C6
:100903000700070000147F147F1400242A7F2A1293
:100913000062640813230036495522500000050382
:10092300000000001C224100000041221C000014B2
:10093300083E08140008083E0808000000A06000F4
:100943000008080808080000606000000020100884
:100953000402003E5149453E0000427F40000042F0
:1009630061514946002141454B31001814127F1053
:10097300002745454539003C4A4949300001710982
:10098300050300364949493600064949291E000036
:1009930036360000000056360000000814224100DD
:1009A300001414141414000041221408000201510D
:1009B300090600324959513E007C1211127C007F16
:1009C30049494936003E41414122007F4141221CB1
:1009D300007F49494941007F09090901003E414916
:1009E300497A007F0808087F0000417F410000200A
:1009F30040413F01007F08142241007F40404040B6
:100A0300007F020C027F007F0408107F003E4141FB
:100A1300413E007F09090906003E4151215E007FE6
:100A2300091929460046494949310001017F01015D
:100A3300003F4040403F001F2040201F003F403800
:100A4300403F00631408146300070870080700613F
:100A53005149454300007F41410000552A552A551D
:100A6300000041417F0000040201020400404040B5
:100A73004040000001020400002054545478007FD9
:100A83004844443800384444442000384444487FB0
:100A930000385454541800087E0901020018A4A415
:100AA300A47C007F080404780000447D40000040DB
:100AB30080847D00007F102844000000417F4000B7
:100AC300007C04180478007C08040478003844444B
:100AD300443800FC242424180018242418FC007C27
:100AE3000804040800485454542000043F444020A0
:100AF300003C4040207C001C2040201C003C403037
:100B0300403C004428102844001CA0A0A07C0044C2
:100B130064544C4414141414141465F00228000093
:100B230000000000000000000000000000000000C2
:100B330000F8000000000000003330000000001047
:100B43000C06100C0600000000000000000040C06E
:100B53007840C0784000043F04043F040400007060
:100B630088FC08300000001820FF211E0000F00858
:100B7300F000E018000000211C031E211E0000F0FD
:100B83000888700000001E21232419272110101645
:100B93000E00000000000000000000000000000044
:100BA30000E01804020000000007182040000002C3
:100BB3000418E00000000040201807000000404037
:100BC30080F0804040000202010F01020200000099
:100BD30000F0000000000101011F010101000000FD
:100BE30000000000000080B0700000000000000062
:100BF30000000000000000010101010101010000EB
:100C03000000000000000030300000000000000081
:100C1300000080601804006018060100000000E076
:100C230010080810E000000F102020100F00001023
:100C330010F8000000000020203F2020000000707A
:100C43000808088870000030282422213000003072
:100C53000888884830000018202020110E0000006A
:100C6300C02010F8000000070424243F240000F8EB
:100C73000888880808000019212020110E0000E0D0
:100C8300108888180000000F112020110E00003872
:100C93000808C83808000000003F0000000000708A
:100CA300880808887000001C222121221C0000E013
:100CB30010080810E0000000312222110F0000008C
:100CC30000C0C00000000000003030000000000041
:100CD30000800000000000008060000000000000B1
:100CE300804020100800000102040810200040404A
:100CF300404040404000040404040404040000088D
:100D03001020408000000020100804020100007041
:100D130048080808F0000000003036010000C03029
:100D2300C828E810E0000718272423140B0000004C
:100D3300C038E0000000203C23020227382008F8D6
:100D4300888888700000203F202020110E00C030CA
:100D5300080808083800071820202010080008F8A1
:100D630008080810E000203F202020100F0008F89A
:100D73008888E8081000203F20202320180008F866
:100D83008888E8081000203F200003000000C030DE
:100D930008080838000007182020221E020008F85F
:100DA30008000008F808203F210101213F20000826
:100DB30008F8080800000020203F20200000000061
:100DC3000808F8080800C08080807F00000008F849
:100DD30088C028180800203F20012638200008F882
:100DE300080000000000203F20202020300008F8E9
:100DF300F800F8F80800203F003F003F200008F803
:100E030030C00008F808203F200007183F00E0101A
:100E130008080810E0000F10202020100F0008F829
:100E230008080808F000203F210101010000E0103C
:100E330008080810E0000F18242438504F0008F861
:100E4300888888887000203F2000030C30200070C1
:100E53008808080838000038202121221C001808BF
:100E630008F8080818000000203F2000000008F8D8
:100E730008000008F808001F202020201F00087821
:100E8300880000C83808000007380E010000F80881
:100E930000F80008F800033C0700073C03000818AB
:100EA30068808068180820302C03032C3020083811
:100EB300C800C83808000000203F200000001008C8
:100EC3000808C83808002038262120201800000010
:100ED30000FE020202000000007F40404000000CC0
:100EE30030C000000000000000010638C00000020E
:100EF3000202FE000000004040407F0000000000AE
:100F030004020202040000000000000000000000D0
:100F130000000000000080808080808080800002CC
:100F230002040000000000000000000000000000B8
:100F33008080808000000019242222223F2008F8AC
:100F4300008080000000003F112020110E000000EF
:100F5300008080800000000E11202020110000007E
:100F630000808088F800000E112020103F20000030
:100F7300808080800000001F222222221300008034
:100F830080F0888888180020203F2020000000007F
:100F9300808080808000006B94949493600008F8B4
:100FA300008080800000203F210000203F2000803F
:100FB3009898000000000020203F2020000000003F
:100FC30000809898000000C08080807F000008F8AF
:100FD300000080808000203F24022D302000000884
:100FE30008F8000000000020203F2020000080803F
:100FF300808080808000203F20003F20003F808051
:10100300008080800000203F210000203F2000005E
:10101300808080800000001F202020201F0080800F
:1010230000808000000080FFA12020110E0000003E
:10103300008080808000000E112020A0FF8080802F
:1010430080008080800020203F21200001000000DC
:1010530080808080800000332424242419000080B1
:1010630080E0808000000000001F202000008080BE
:10107300000000808000001F202020103F2080807F
:1010830080000080808000010E300806010080800F
:101093000080008080800F300C030C300F00008034
:1010A3008000808080000020312E0E31200080805F
:1010B30080000080808080818E701806010000808F
:1010C3008080808080000021302C222130000000AD
:1010D3000000807C020200000000003F404000004E
:1010E3000000FF00000000000000FF0000000002FD
:1010F300027C800000000040403F0000000000062A
:10110300010102020404000000000000000000C00E
:10111300E0C0F0C083C082C0D075D000C000C00161
:10112300C002C003C004C005C006C0079009BFE0E9
:10113300701A900A0CE024FFF0900A0BE034FFF0E1
:10114300E07002A3E070059009BF04F0E59F20E57D
:1011530003021519904037E04440F09009C6E0FFC0
:10116300B4050F9040D6E0FDA3E090083DCDF0A379
:10117300EDF0EF60299009C6E0640860219040CE4D
:10118300E0FEA3E0FF90083FE0FCA3E0FD7B907A44
:1011930001123CE690083FEEF0A3EFF080079008C1
:1011A3003FE4F0A3F090403CE0FEA3E0FF90084151
:1011B300E0FCA3E0FD7B907A01123CE6900841EE4F
:1011C300F0A3EFF0904040E0FEA3E0FF900843E07F
:1011D300FCA3E0FD7B907A01123CE6900843EEF01D
:1011E300A3EFF090403EE0FFA3E090084DCFF0A3C3
:1011F300EFF0900A0AE004F0E06405600302131EB6
:10120300F07BFF7A377967FDFF12346190083FE086
:10121300FCA3E0FDEC1203097BCD7ACC79AC7840DA
:10122300120267120342AB07AA06E4FD7F421230A3
:10123300817BFF7A3779737D01E4FF123461900873
:101243003DE0FEA3E07804CEA2E713CE13D8F8FB6B
:10125300AA067D017F421230817BFF7A37797D7D3B
:1012630002E4FF123461900841E0FEA3E0FF7C003A
:101273007D09120470AA06AB077D027F42123081FA
:101283007BFF7A3779897D03E4FF12346190084349
:10129300E0FEA3E0FF7C007D09120470EF241FFB36
:1012A300EE34FFFA7D037F421230817BFF7A377978
:1012B300947D04E4FF12346190084DE0FEA3E0FF47
:1012C300C374FF9FFB740F9EFA7D047F421230812B
:1012D3007BFF7A37799E7D05E4FF12346190088E97
:1012E300E070087BFF7A3779A8800D90088EE0B410
:1012F300010D7BFF7A3779AC7D057F421234617B28
:10130300FF7A3779B07D06E4FF123461900A0BE06F
:10131300FAA3E0FB7D067F42123081122755123972
:10132300E61233E6123CC212381190090A7401F036
:101333009008FE744AF0A374AAF09009BDE004F08B
:1013430070069009BCE004F0D39009B3E0940090D8
:1013530009B2E09400400CA3E024FFF09009B2E04E
:1013630034FFF0D39009B1E094009009B0E0940009
:10137300400CA3E024FFF09009B0E034FFF0D390D9
:1013830009B5E094009009B4E09400400CA3E02474
:10139300FFF09009B4E034FFF0D39009B7E0940074
:1013A3009009B6E09400400CA3E024FFF09009B646
:1013B300E034FFF0E4FFFEFDFC9009B8E0F8A3E0A1
:1013C300F9A3E0FAA3E0FBD312068240249009B804
:1013D300E0FCA3E0FDA3E0FEA3E0FFEF24FFFFEEAC
:1013E30034FFFEED34FFFDEC34FFFC9009B8120727
:1013F3006B9009C6E0B40255E47FFAFEFDFC900849
:1014030020E0F8A3E0F9A3E0FAA3E0FBC3120698F7
:101413005021900820E0FCA3E0FDA3E0FEA3E0241C
:1014230001FFE43EFEE43DFDE43CFC90082012078E
:101433006B801A90081A74FFF0A374F5F0900820DB
:101443001207770000000090082D7401F09009C680
:10145300E0640560030215169009B6E0FEA3E0FF01
:10146300BE090EBFC40B9040D07402F0A3749080E9
:1014730020BE070EBFD00B9040D07404F0A3744578
:10148300800FBE0614BF40119040D07407F0A374C0
:10149300B0F0A3E4F0A3F0807ABE0515BF781290F4
:1014A30040D0740CF0A374D1F0A3E4F0A304F08053
:1014B30062BE0516BF14139040D07414F0A3748257
:1014C300F0A3E4F0A37403F08049BE0416BFB01385
:1014D3009040D07419F0A374A2F0A3E4F0A37405B0
:1014E300F08030BE0216BF58139040D0742AF0A388
:1014F30074B9F0A3E4F0A37410F08017EF64014E05
:1015030070119040D07444F0A3745CF0A3E4F0A392
:101513007429F0539FDFD007D006D005D004D00341
:10152300D002D001D000D0D0D082D083D0F0D0E090
:1015330032E4900852F0A3F090091FF090090FF0E5
:1015430090084FF0C2009008A2F0A3F09008A7F013
:10155300900891F0A3F090091DF0A3F090088FF08C
:10156300A3F09008AAF0A3F0A3F0A3F0A3F0A3F0D4
:1015730090088604F0E49008CDF0A3F0A3F0A3F064
:10158300A3F0A3F09008B07438F0A374E3F0E4A3DD
:10159300F0A3F0A3F0A3F0A3F09008FBF0A3F09066
:1015A30008EB120777000000009008EF120777009E
:1015B300000000E49008F7F0A3F0A3F0A3F0900874
:1015C300F312077700000000E49008C8F09008B712
:1015D300F0A3F0A37403F0A374E8F0E4A3F0A3F082
:1015E300A3F0A3F0A3F0A3F0A3F0A3F0A3F0A3F060
:1015F300A37409F0A374F4F0E4A3F09008C9740889
:10160300F0A3742AF0E4A3F0A3F09008D9F0A3F0B8
:10161300A3F0A3F0A3F0A37415F0A3E4F0A3743A2A
:10162300F0E49008D3F0A3F09008D3F0A3F090086F
:10163300D3F0A3F09008E1F0A3F0A3F0A3F0A3F09C
:10164300A3F09008E9F0A3F09008E7F0A3F0900965
:10165300C0F0A3F0A3F0A3F0900833F0A3F0A3F03D
:10166300A3F0A3F0A3F090083BF0A3F0900845F09B
:10167300A3F0900839F0A3F0900847F0A3F0900886
:101683003DF0A3F0900917F0A3F0A3F0A3F09008A6
:1016930041F0A3F0900887F0A3F09009B2F0A3F013
:1016A3009009B0F0A3F09009B4F0A3F09009B81238
:1016B300077700000000E49009B6F0A3F09009BC9E
:1016C300F0A3F0A3F0A3F09009C912077700003F3D
:1016D300FFE49009C7F0A3F09009CF120777000049
:1016E3003FFFE49009CDF0A3F09009D512077700EE
:1016F300003FFFE49009D3F0A3F09009D9F0A3F0E1
:101703009009DDF0A3F09009DB7403F0A374E8F013
:1017130090089512077700000000E4900899F09074
:10172300089E1207770000000090089A12077700BE
:10173300001387E49008FEF0A3F0A3F0A3F0A3F056
:10174300A3743CF0A3E4F0A3743CF0E4A3F0A3F08F
:10175300A3F0A37402F0E4900975F0A3F0A3F0A33F
:10176300F0A3F0A3F0A3F0A3F0A3F0A3F0A3F0A3DE
:10177300F0A3F0A3F0A3F0A3F0A3F0A3F0A3F0A3CE
:10178300F0A3F0A3F0A3F0A3F0A3F0A3F0A3F0A3BE
:10179300F0A3F0A3F0A3F0A3F0A3F0A3F0A3F0A3AE
:1017A300F0A3F0A3F0A3F0A3F0A3F0A3F0A3F0A39E
:1017B300F0A3F0A3F0A3F0A3F0A3F0A3F0A3120708
:1017C3007700000000E49009ABF0A3F0A3F0A3F0CE
:1017D300A3F0900868F090088CF0A3F090086904D7
:1017E300F0E4900882F0A3F090086E1207770000EF
:1017F3000000E490082FF0900831F0900913F0A353
:10180300F0900912F090090B12077700000000E432
:10181300900850F0A3F09008FD04F0E49008A8F0BD
:10182300A3F0900832F090091BF0A3F022E4900992
:10183300F9F0A3F0A3F0A3F0A3F0A3F09009F8F05C
:101843009009F8E0FFD39405504BEF25E02433F5DE
:1018530082E43409123DF0C006C0079009F9123D35
:10186300F2D005D004C3EF9DEC6480F8EE64809859
:10187300501B9009F8E025E02433F582E43409F5A0
:1018830083E0FFA3E09009F9CFF0A3EFF09009F80C
:10189300E004F080ABE49009F8F09009F8E0FFD39E
:1018A3009405504BEF25E0243FF582E43409123DC3
:1018B300F0C006C0079009FB123DF2D005D004C367
:1018C300EF9DEC6480F8EE648098501B9009F8E07B
:1018D30025E0243FF582E43409F583E0FFA3E0909B
:1018E30009FBCFF0A3EFF09009F8E004F080ABE43C
:1018F3009009F8F09009F8E0FFD39405504BEF25D9
:10190300E0244BF582E43409123DF0C006C0079091
:1019130009FD123DF2D005D004C3EF9DEC6480F8BD
:10192300EE648098501B9009F8E025E0244BF58283
:10193300E43409F583E0FFA3E09009FDCFF0A3EFC2
:10194300F09009F8E004F080AB9009F9E0FEA3E021
:10195300FFD39400EE648094804024A3E0648094D9
:1019630080501C9009FEE094009009FDE06480948F
:1019730080400C900957E4F0A3743CF0021A86D31C
:10198300EF9400EE6480948040219009FBE0648032
:1019930094805017C39009FDE064809480500C90AC
:1019A3000957E4F0A37478F0021A86D39009FAE099
:1019B30094009009F9E0648094804027D39009FC57
:1019C300E094009009FBE06480948040169009FD48
:1019D300E064809480500C900957E4F0A374B4F051
:1019E300021A869009F9E0FEC3EE648094805025C4
:1019F3009009FCE094009009FBE06480948040151A
:101A03009009FDE064809480500B900957E4F0A3A3
:101A130074F0F0806EC3EE64809480502D9009FCC6
:101A2300E094009009FBE064809480401DD390090A
:101A3300FEE094009009FDE064809480400C9009DE
:101A4300577401F0A3742CF08039C39009F9E06452
:101A53008094805027C39009FBE064809480501CDD
:101A63009009FEE094009009FDE064809480400CAE
:101A73009009577401F0A37468F08007E490095744
:101A8300F0A3F09009287401F022900924E0FEA34A
:101A9300E0FFEE6003021C98EF1460681470030209
:101AA3001B5E147003021BA5147003021BFA14704F
:101AB30003021C4024056003021C98900963E0FEA6
:101AC300A3E0FF8EB78FB6900961E0FEA3E0FF8E1F
:101AD300BB8FBA8EBD8FBC90092CE0FF900931E01B
:101AE300FEA3E0A807088005C333CE33CED8F9FFA1
:101AF3009009D3E0FCA3E0FDC3EF9DFFEE9C9009AA
:101B030033021C94900963E0FEA3E0FF8EB78FB607
:101B13008EBB8FBA900961E0FEA3E0FF8EBD8FBC40
:101B230090092CE0FF900931E0FEA3E0A8070880AC
:101B330005C333CE33CED8F9FF9009D3E0FCA3E03D
:101B4300FDC3EF9DFFEE9CFE90094DF0A3EFF0C3A4
:101B5300E49FFFE49E90094D021C94900961E0FE0E
:101B6300A3E0FF8EB78FB6A3E0FCA3E0FD8CBB8D93
:101B7300BA8EBD8FBC90092CE0FF900931E0FEA323
:101B8300E0A807088005C333CE33CED8F9FF900908
:101B9300D3E0FCA3E0FDC3EF9DFFEE9C900943025D
:101BA3001C94900961E0FEA3E0FF8EB78FB6A3E01B
:101BB300FEA3E0FF8EBB8FBA8EBD8FBC90092CE0D5
:101BC300FF900931E0FEA3E0A807088005C333CEE8
:101BD30033CED8F9FF9009D3E0FCA3E0FDC3EF9D1A
:101BE300FFEE9CFE900939F0A3EFF0C3E49FFFE4FE
:101BF3009E900939021C94900961E0FEA3E0FF8ED8
:101C0300B78FB68EBB8FBAA3E0FEA3E0FF8EBD8F66
:101C1300BC90092CE0FF900931E0FEA3E0A807087F
:101C23008005C333CE33CED8F9FF9009D3E0FCA3AC
:101C3300E0FDC3EF9DFFEE9C900953805490096330
:101C4300E0FEA3E0FF8EB78FB6900961E0FCA3E04E
:101C5300FD8CBB8DBA8EBD8FBC90092CE0FF900923
:101C630031E0FEA3E0A807088005C333CE33CED806
:101C7300F9FF9009D3E0FCA3E0FDC3EF9DFFEE9CC9
:101C8300FE900949F0A3EFF0C3E49FFFE49E90099F
:101C930049F0A3EFF0229009C6E0B40A0040030222
:101CA3001E0D901CACF8282873021CCA021CE30208
:101CB3001D07021D42021D70021D73021D9E021E9E
:101CC3000D021DF8021D1A122243121F7C123C4AF8
:101CD3009009C67401F09009B2E4F0A3740FF022E6
:101CE30012363B9009B2E07002A3E06003021E0DBE
:101CF3009009C67409F0E49009C4F074FF90084990
:101D0300F0A3F0229009B0E07002A3E06003021E8A
:101D13000D1235C90228751232E1900849EEF0A37D
:101D2300EFF0F47002EEF47003021E0D9009C67416
:101D330003F09009B6E4F0A304F0900831F0221206
:101D430031BE9009B6E07002A3E070109009C6742A
:101D530004F09009B812077700002710900902E4F5
:101D6300F0A3740FF0A3E4F0A3743CF022022A9EC4
:101D73009008FEE07002A3E070109009C67406F0AC
:101D83009009B812077700002710900902E4F0A326
:101D93007428F0A3E4F0A37428F022C3900840E071
:101DA300945590083FE06480948540149009B8E00E
:101DB300FCA3E0FDA3E0FEA3E0FFEC4D4E4F700E4D
:101DC300904090E4F0C2EF9009C67408F022D390DB
:101DD30008FFE094009008FEE064809480402B901C
:101DE30009C67405F0E4900833F0A3F09040AEF018
:101DF300A374DAF022904090E4F0C2EFC2FF90099E
:101E03000AE0B40105E49009C6F0229009C6E0FF98
:101E130064056008EF64046003021F7B9040E0E008
:101E2300FEA3E0FF123E08900023EE8FF01205F8A8
:101E33009040E2E0FEA3E0FF123E08900025EE8F03
:101E4300F01205F89040E0E0FEA3E0FFC3E49FFF3B
:101E5300E49EFEA3E0FCA3E0FDC3EF9DFFEE9CFE2A
:101E6300123E08900027EE8FF01205F89000291219
:101E7300051CFFAEF090002312051CFDACF0D39FB0
:101E8300EC9E4009900029EC8DF01205F890002B90
:101E930012051CFFAEF090002512051CFDACF0D31B
:101EA3009FEC9E400990002BEC8DF01205F89000FA
:101EB3002D12051CFFAEF090002712051CFDACF09F
:101EC300D39FEC9E400990002DEC8DF01205F89005
:101ED3000009E475F00112058C90000912051CD36A
:101EE3009480E5F0943E4010900009E4F5F012056B
:101EF300F8900008E412043C90000612051CFFAEA3
:101F0300F090002312051CC39FE5F09E502C900017
:101F13000612051CFFAEF090002512051CC39FE5B9
:101F2300F09E501690000612051CFFAEF09000279D
:101F330012051CC39FE5F09E403E900008740112F9
:101F430004099000081203DCC39403402B90002380
:101F5300E4F5F01205F8900025E4F5F01205F89089
:101F63000027E4F5F01205F8900008E412043C9011
:101F730008A67401F0123C8A229040647413F0D2D4
:101F8300EF904094E054FEF0904093E04401F0D28F
:101F9300BFC2BE904090E4F0A3F09040ACF0A3F039
:101FA300A3F0A3F09040B8F0A3F09040BEF0A3F0EC
:101FB3009040BCF0A3F090408EF09040BAF0A3F0B4
:101FC3009040C0F0A37403F09040B014F0A3745792
:101FD300F09040D4741FF0A374FFF09040987410F5
:101FE300F0A3E4F0A3F0A37428F0A37426F0A37481
:101FF30066F0A374D9F0A3749AF0A37410F0A3E469
:10200300F0A3F0A37428F0A3747AF0A374E0F0A310
:102013007485F0A37420F09040D8747FF0A374C843
:10202300F0A37409F0A374D6F0A37403F0A3744B64
:10203300F0A3E4F0A3F09040CC04F0A37447F09035
:1020430040CAE4F0A3749AF09040C87408F0A374F3
:102053000AF09040D07401F0A374B5F0A3E4F0A3A8
:10206300F090088EE0600543E901800353E9FE9098
:102073004097E0547FF0E054BFF09040C4746CF09C
:10208300A374CBF0A37402F0A374AEF0904091E07C
:102093004480F0E054BFF0904090E054F7F090405B
:1020A300B47408F0A37431F0A3E4F0A37407F090C0
:1020B3004091E054DFF09009DDE07004A3E0640197
:1020C300701A904095E04480F0E04440F09009D3CA
:1020D300E0FFA3E09040FCCFF0A3EFF0229009DFF4
:1020E300EBF0A3EAF0A3E9F0A3EDF09009DFE0FB46
:1020F300A3E0FAA3E0F91206BDEF2401FFE43EFEDC
:10210300E43DFDE43CFC12070D9009DFE0FBA3E096
:10211300FAA3E0F99000051206DD12074BC312067D
:102123009840030221FA9009DFE0FBA3E0FAA3E061
:10213300F99000091206DDE47BC8FAF9F8D3120618
:102143009840269009DFE0FBA3E0FAA3E0F99000B2
:10215300091206DDEF2401FFE43EFEE43DFDE43C0D
:10216300FC90000912072780599009DFE0FBA3E0E8
:10217300FAA3E0F99000091206DDE47BC8FAF9F846
:10218300D3120698503C9009DFE0FBA3E0FAA3E0EA
:10219300F99000091206DDE47BC9FAF9F8D31206B7
:1021A30098401F9009DFE0FBA3E0FAA3E0F9900059
:1021B300091207C200000000B2B6900004740112B5
:1021C30004099009DFE0FBA3E0FAA3E0F99000041F
:1021D3001203DCFD9009E2E075F002A4FFC3ED9F5A
:1021E300E5F06480F874809840559000091207C2A6
:1021F300000000CAD2B6229009DFE0FBA3E0FAA3F5
:10220300E0F99000051206DD12074BC31206984051
:102213002E9009DFE0FBA3E0FAA3E0F91207A80080
:102223000000009009DFE0FBA3E0FAA3E0F99000CF
:1022330004E412043C9000091207C20000000022CB
:10224300E49008A6F09009BCF0A3F090088604F08F
:10225300E49008AAF0A3F0A3F0A3F0A3F0A3F090F6
:1022630008CDF0A3F0A3F0A3F0A3F0A3F09008B07F
:102273007438F0A374E3F0E4A3F0A3F0A3F0A3F0A5
:10228300A3F09008C8F09008B7F0A3F0A37403F08C
:10229300A374E8F0E49008BDF0A3F0A3F0A3F0A3C7
:1022A300F0A3F0A3F0A3F0A37409F0A374F4F0E493
:1022B300A3F09008C97408F0A3742AF0E4A3F0A370
:1022C300F09008EB120777000000009008EF120768
:1022D3007700000000E49008F7F0A3F0A3F0A3F068
:1022E3009008F312077700000000E49008D9F0A3E8
:1022F300F0A3F0A3F0A3F0A37415F0A3E4F0A37488
:102303003AF0E49008D3F0A3F09008D3F0A3F09050
:1023130008D3F0A3F09008E1F0A3F0A3F0A3F0A397
:10232300F0A3F09008E9F0A3F0900833F0A3F0A332
:10233300F0A3F0A3F0A3F090083BF0A3F0900845BE
:10234300F0A3F0900839F0A3F0900831F090082F33
:10235300F09009C0F0A3F0A3F0A3F090083FF0A31E
:10236300F0900889F0A3F0A3F0900967F0A3740438
:10237300F0A3E4F0A37402F0A3E4F0A3740BF0A3BE
:10238300E4F0A37404F09009737402F0A37457F09B
:1023930090096FE4F0A374B3F0A37401F0A374A3E2
:1023A300F022904058E054FEF0E054EFF0E0444057
:1023B300F0E054DFF0E04480F0E054F7F090406345
:1023C3007401F0904062E4F09040607402F0A374F2
:1023D300EDF090405EE4F0A304F090405DE04440F3
:1023E300F090405CE054FDF0E054F7F0E054DFF08F
:1023F300E0547FF0A3E054FDF0E054F7F0E054DF45
:10240300F090405AE04408F0E04404F0E04402F065
:10241300E04401F090405CE04401F0E04404F090BB
:10242300405AE04480F0E04440F0E04420F0E044CF
:1024330010F090405CE04410F0E04440F090405BCA
:10244300E04408F0E04404F0E04402F0E04401F02A
:1024530090405DE04401F0E04404F090405BE044D0
:1024630080F0E04440F0E04420F0E054EFF090408E
:102473005DE04410F09040647415F075BF0075BEC4
:10248300DB900965E0FEA3E0FF8EBD8FBC8EBB8FA2
:10249300BA8EB78FB690404DE04408F0E054FBF09D
:1024A300C2FFC2FE904058E054FBF0E054FDF053ED
:1024B300B1DF53B1EF53B1F753B1FB53B1FD53B197
:1024C300FE53B9DF43B91053B9F753B9FB53B9FD01
:1024D30053B9FED2C1D2C0D2AFA3E054DFF0E0447F
:1024E30010F0E054F7F0E054FBF0E054FDF0E0545A
:1024F300FEF0229009C6E06402600302262F9008D2
:102503001EE0600302262F9040C2E0FFA3E0900884
:1025130018CFF0A3EFF0900818E0FAA3E0FBC39400
:102523001EEA648094075031900828E06007900801
:102533001DE0B4031D9008201207770000000090EF
:1025430008287401F090081DE0B4030690082EE0FB
:1025530004F090081D7401F022D3EB94E4EA648044
:10256300947850030225EE900819E0941C90081803
:10257300E064809487507490081DE0FF6401600557
:10258300EF6403705F900820E0FCA3E0FDA3E0FE8E
:10259300A3E02401FFE43EFEE43DFDE43CFC90089F
:1025A3002012076B7E087F297C087D20123AB590A4
:1025B300081AEEF0A3EFF090081FE004F09008284B
:1025C300E0B40102E4F090081DE0FFB40107E490D9
:1025D300081CF0800AEFB4030690081C7401F0E4B1
:1025E30090082EF090081D7402F022D3900819E091
:1025F30094E2900818E0648094F84030900828E052
:10260300600790081DE0B4011D90082012077700B1
:102613000000009008287401F090081DE0B4010642
:1026230090082EE004F090081D7403F02290408877
:10263300E4F0A304F0A304F0A37422F0A3740AF05B
:10264300A374AAF0904090E04440F0E054DFF0E03F
:102653004410F09040987410F0A3E4F0A3F0A37436
:1026630028F0A37426F0A37466F0A374D9F0A374BE
:102673009AF0A37410F0A3E4F0A3F0A37428F0A3DA
:10268300747AF0A374E0F0A37485F0A37420F0903F
:1026930040D8747FF0A374C8F0A37409F0A374D670
:1026A300F0A37403F0A3744BF0A3E4F0A3F0904001
:1026B300CC04F0A37447F09040CAE4F0A3749AF0FA
:1026C3009040C87408F0A3740AF09040ACE4F0A3FF
:1026D300F0900845F0A374DAF09040AEE4F0A374F0
:1026E300DAF075ED00F5EC9008317403F09009C64B
:1026F3007405F0E4900833F0A3F0D390081BE09442
:102703002C90081AE094019040D04018742AF0A34A
:1027130074B9F0A3E4F0A37410F09009B6E4F0A345
:10272300740AF022740CF0A374D1F0A3E4F0A304B0
:10273300F0900845F0A374B4F09040AE7401F0A398
:1027430074B4F075ED01F5EC9009B67407F0A304C9
:10275300F0229009C6E0FF64056008EF6406600399
:10276300022874900833E0FEA3E0FFEE6003022822
:1027730074EF14604A046003022874D3900840E0A5
:10278300948890083FE064809488500302287490F2
:102793000833E4F0A304F09008457404F0A37444F0
:1027A300F09040AE7404F0A37444F0E4900839F060
:1027B300A3F0900845E0FEA3E0FF8EED8FEC22909E
:1027C300083AE004F07006900839E004F0D390086A
:1027D3003AE09405900839E094005003022874E429
:1027E300F0A3F090084DE0FCA3E0FDE41203097BA5
:1027F3009A7A997989784012015EA804A905AA06F4
:10280300AB077F007E547D957C461200691203421C
:10281300900900EEF0A3EFF0D394AAEE648094CA7B
:10282300400C900900744AF0A374AAF08018C39076
:102833000901E09455900900E06480948550077481
:1028430005F0A37455F090084DE0FEA3E0FFBE0F22
:102853000FBFFF0C9009007405F0A37455F0800EB0
:10286300EF4E700A900900744AF0A374AAF0123B69
:10287300AC2290081CE0FF700690082DE0700990D0
:10288300082EE0C39403400C9009C67409F0E49049
:1028930009C4F022EF6401600302296F9040B0E0A5
:1028A300FCA3E0FDE41203097BA47A70797D783FF1
:1028B30012015E1203429040B2EEF0A3EFF090409B
:1028C300907406F090081AE0FEA3E0FFC39432EE82
:1028D300940050129009B07401F0A3742CF0900886
:1028E300327401F08043C3EF942CEE9401501290A4
:1028F30009B07401F0A374F4F09008327402F0800C
:1029030028C3EF9458EE94029009B0500F7403F06B
:10291300A37484F09008327403F0800D740FF0A355
:1029230074A0F09008327404F090082FE004F0E0F3
:10293300FFC39404401B90081BE0946490081AE0C2
:102943009400500D9009C67409F0E49009C4F08016
:1029530015EFD39406400F9008A67410F09009C6A3
:102963007407F0123C8AE49009C2F02290081CE03C
:10297300701BD390081BE0947890081AE0940040F1
:102983000C90081FE0D394034003122630229009D1
:1029930029E014603C14605F147003022A21147050
:1029A30003022A4424046003022A9D123D6690090F
:1029B30022E07002A3E06003022A9D900959E0FF20
:1029C300A3E0900922CFF0A3EFF09009297401F05E
:1029D30022122FDA900922E07002A3E06003022A98
:1029E3009D90095FE0FFA3E0900922CFF0A3EFF0F1
:1029F3009009297402F022900926E07009123D66BD
:102A03009009267401F0900922E07002A3E06003AC
:102A1300022A9D9009297403F090095B8016121A0B
:102A23008D900922E07002A3E0706F90092974046D
:102A3300F090095DE0FFA3E0900922CFF0A3EFF04F
:102A430022123D66900922E07002A3E0704C9009C7
:102A53002AE004F0E0D364809485502F900925E0A8
:102A630004F07006900924E004F0E490092BF09040
:102A73000929F0900922F0A37408F0E4900926F0E4
:102A830090092DF0A3F0A3F0A3F02290092774017D
:102A9300F0904058E054FEF0C2FF229009C3E0607A
:102AA30003022B9404F0904090E04404F0E054FDC2
:102AB300F0900849E0FCA3E0FDE4120309E4FBFA0B
:102AC300793478431202677B007AFE79FF784612E5
:102AD300015E1203429040B8EEF0A3EFF090082F8E
:102AE300E0FFC39404401D9040ACE4F0A3F09008D1
:102AF300457405F0A37467F09040AE7405F0A374B9
:102B030067F0803BEFC394019040AC401AE4F0A31C
:102B1300F09008457405F0A3741EF09040AE740560
:102B2300F0A3741EF08018E4F0A3F0900845740439
:102B3300F0A37444F09040AE7404F0A37444F09096
:102B430040987410F0A3E4F0A3F0A37428F090402D
:102B5300A07410F0A3E4F0A3F0A37428F09040D085
:102B63007401F0A374B5F0A3E4F0A3F0904088F0EF
:102B7300A304F0A304F0A37422F0A3740AF0A374D3
:102B8300AAF0904090E04440F0E054DFF0E04410BD
:102B9300F09009B67409F0A374C4F09009C67405E3
:102BA300F022E4900924F0A3F0900922F0A3F0901E
:102BB3000926F0A3F0A3F090092BF090092DF0A3C0
:102BC300F0A3F0A3F0A3F0A3F0900957F0A3F090C3
:102BD3000933F0A3F0A3F0A3F0A3F0A3F0A3F0A3B1
:102BE300F0A3F0A3F0A3F0A3F0A3F0A3F0A3F0A34A
:102BF300F0A3F0A3F0A3F0A3F0A3F0A3F0A3F0A33A
:102C0300F0A3F0A3F0A3F0A3F0A3F0A3F0A3F0A329
:102C1300F0A3F0A3F0A3F0A3F0900967E0FFA3E013
:102C2300900959CFF0A3EFF0900969E0FFA3E0907A
:102C3300095BCFF0A3EFF090096BE0FFA3E09009ED
:102C43005DCFF0A3EFF090096DE0FFA3E090095F83
:102C5300CFF0A3EFF090096FE0FFA3E0900961CFFD
:102C6300F0A3EFF0900971E0FFA3E0900963CFF0C8
:102C7300A3EFF0900973E0C313FFA3E0139009657A
:102C8300CFF0A3EFF090092C7403F022C0E0C0F062
:102C9300C083C082C0D075D000C000C001C002C0D4
:102CA30003C004C005C006C007309922C299900929
:102CB300AEE0FFA3E0C39F5015E004F0E025E0245D
:102CC30089F582E43409F583A3E0FF120007209815
:102CD30003022D5DC298AF9990099DE4F0A3EFF034
:102CE30090099DE0FCA3E0FD9009A0E025E0FF90A2
:102CF300099FE033FE74752FF58274093EF583EC6A
:102D0300F0A3EDF0900975E07004A3E064AA702BC2
:102D130090088CF0A3F09009A0E004F070069009ED
:102D23009FE004F0900977E07004A3E0645570120B
:102D3300900977F0A3F090099F800490099FE4F035
:102D4300A3F0C39009A0E0940A90099FE094004087
:102D530009E4F0A3F09009AD04F0D007D006D00544
:102D6300D004D003D002D001D000D0D0D082D08301
:102D7300D0F0D0E03243FC04904053E04404F0D25E
:102D83008243FC08E04408F0D28343FC10E0441083
:102D9300F0D28443FC20E04420F0C28543FC80E071
:102DA3004480F0D287D287C282904031E054FBF056
:102DB3007F327E00123DD6E04404F07FAE123DC860
:102DC300E4FF123DC87F10123DC87F40123DC87F0B
:102DD30081123DC87FCF123DC87FA1123DC87FC875
:102DE300123DC87FA6123DC87FA8123DC87F3F127F
:102DF3003DC87FD3123DC8E4FF123DC87FD5123DC5
:102E0300C87F80123DC87FD9123DC87FF1123DC8EB
:102E13007FDA123DC87F12123DC87FDB123DC87FA7
:102E230040123DC87F20123DC87F02123DC87F8DEE
:102E3300123DC87F14123DC87FA4123DC87FA6125D
:102E43003DC87FAF123DC8E4FF123C9BE4FDFF0287
:102E53003D48904037E04440F0904037E020E6F9A9
:102E63009009D5E0F8A3E0F9A3E0FAA3E0FBC000E2
:102E7300C001C002C003904040E0540FFEA3E078BD
:102E830003C333CE33CED8F9FFE4FCFDD003D00225
:102E9300D001D000EB2FFFEA3EFEED39FDEC38FC0C
:102EA3009009D512076B9009D5E0FCA3E0FDA3E0E0
:102EB300FEA3E0FF78041206A99009D3EEF0A3EF76
:102EC300F0A3E0FCA3E0FDA3E0FEA3E0FFC006C087
:102ED300079009D3E0FEA3E0FBAA06EA3395E0F9E5
:102EE300F8D007D006C3EF9BFFEE9AFEED99FDECF9
:102EF30098FCA312076B9009DAE004F070069009BE
:102F0300D9E004F09009DBE0FEA3E0FFD39009DAF7
:102F1300E09FEE6480F89009D9E0648098400890BF
:102F230009DDE4F0A304F0229009F412077700000E
:102F33000000123DA19009F412077700000000E49D
:102F43007F107E27FDFC9009F4E0F8A3E0F9A3E0ED
:102F5300FAA3E0FBC312069850219009F4E0FCA306
:102F6300E0FDA3E0FEA3E02401FFE43EFEE43DFD1B
:102F7300E43CFC9009F412076B80C4123E19123D25
:102F83002990088E7401F0123951122D7820800F88
:102F930090088EE07F0070027F0190088EEFF09022
:102FA30009BFE060E89009DDE07002A3E07005125C
:102FB3002E5580F1121C999040A8E0FFA3E0900ADF
:102FC30008CFF0A3EFF09040AAE0FFA3E0900A0639
:102FD300CFF0A3EFF080CE900924E0FEA3E0FFEE54
:102FE3006003023080EF14602214603214604014D6
:102FF300605714606E24056003023080900961E01D
:10300300FEA3E0FF8EB78FB6A38033900961E0FE85
:10301300A3E0FF8EB78FB68EBB8FBAA3803E900915
:1030230063E0FEA3E0FF8EB78FB690096180419005
:103033000963E0FEA3E0FF8EB78FB6900961E0FE5F
:10304300A3E0FF8EBB8FBA8030900963E0FEA3E05C
:10305300FF8EB78FB68EBB8FBA900961E0FEA3E0F7
:10306300FF8016900961E0FEA3E0FF8EB78FB6A341
:10307300E0FCA3E0FD8CBB8DBA8EBD8FBC22900912
:10308300DFEFF0A3EDF0A3EAF0A3EBF0C3EA648073
:10309300948050259009E1E0FEA3E0FFC3E49FFF85
:1030A300E49E9009E1F0A3EFF09009DFE0FFA3E0D5
:1030B300FD7BFF7A007903800E9009DFE0FFA3E038
:1030C300FD7BFF7A0079051234619009DFE0240665
:1030D300F09009E1E0FEA3E0FF7B017A0979E612B3
:1030E30033649009E37401F0A37409F0A374E7F067
:1030F3009009E3E0FBA3E0FAA3E0F91203C3601E27
:103103009009DFE0FFA3E0FD1234619009DFE024C2
:1031130006F09009E4E475F0011204C580D2229010
:103123004037E04480F0E054DFF0904035E054FB5A
:10313300F0E04410F0E054F7F090404FE04410F01A
:10314300904052E04408F0904036E04440F0904014
:1031530051E04480F0904036E04410F0904051E05C
:103163004420F0904036E04408F0904051E0441091
:10317300F0904036E04404F0904051E04408F09071
:103183004036E04402F0904051E04401F090403674
:10319300E04401F09040497433F0904048F090408F
:1031A30037E054FEF0E054FDF0904035E054FEF07B
:1031B300E054FDF0C2C5C2C4D2AF229009C1E060A1
:1031C3000302325404F0C2EF121F7C904097E04494
:1031D3003FF0D2FF9040ACE4F0A3F0A3F0A3746DF2
:1031E300F09040D07401F0A374B5F0A3E4F0A3F021
:1031F3009040987408F0A3E4F0A3F0A374CCF0908B
:1032030040A07408F0A3E4F0A3F0A374CCF09040C2
:10321300BEE4F0A3F09040BCF0A3F0900849E0FCBA
:10322300A3E0FDE4120309E4FBFA793478431202C4
:10323300677B007AFE79FF784612015E12034290A3
:1032430040B8EEF0A3EFF09040907405F0E0547FA7
:10325300F022787FE4F6D8FD75812002329C022F9C
:103263002BE493A3F8E493A34003F68001F208DF71
:10327300F48029E493A3F85407240CC8C333C4543B
:103283000F4420C8834004F456800146F6DFE480EF
:103293000B01020408102040809008D1E47E0193C2
:1032A30060BCA3FF543F30E509541FFEE493A360C1
:1032B300010ECF54C025E060A840B8E493A3FAE41C
:1032C30093A3F8E493A3C8C582C8CAC583CAF0A36D
:1032D300C8C582C8CAC583CADFE9DEE780BE9009D4
:1032E300C4E0700C122BA5123D849009C47401F044
:1032F300900927E070051229918061900928E070F8
:10330300051218308056904090E4F0121F7C53B998
:10331300FE90404DE04408F0E04404F0D2FF9040BA
:1033230090E04404F0904097E0443FF09040B0E0D8
:10333300FCA3E0FDE41203097433FBFAF9783F12AE
:10334300015E1203429040B2EEF0A3EFF090409082
:103353007406F0900957E0FEA3E0FF227EFF7FFF93
:10336300229009EDEEF0A3EFF0A3EBF0A3EAF0A3B4
:10337300E9F09009F37406F09009EFE0FBA3E0FA9B
:10338300A3E0F99009F3E0F582758300E4804E90A1
:1033930009F3E0604D14F09009EDE0FAA3E0FB7C43
:1033A300007D0AFFAE021204709009F2EDF07C007A
:1033B3007D0AAF03AE021204709009EDEEF0A3EFA5
:1033C300F09009F2E02430FF9009EFE0FBA3E0FA6C
:1033D300A3E0F99009F3E0F582758300EF12043C52
:1033E30080AD229008A6E01207F7340C00342301C5
:1033F300342D0234410434370834190A340F0C34A1
:103403005510344B1200003460C2B6227B017A0897
:1034130079957D0180447B017A0879957D02803A14
:103423007B017A0879957D0380307B017A08799551
:103433007D0480267B017A0879957D05801C7B01BC
:103443007A0879957D0680127B017A0879957D0744
:1034530080087B017A0879957D081220E022900983
:10346300EDEFF0A3EDF0A3EBF0A3EAF0A3E9F0E4B2
:10347300A3F0FEFC9009EFE0FBA3E0FAA3E0F98CD4
:10348300827583001203DC604E24E09009F2F09011
:1034930009EDE0D3947E4006E4F0A3E004F0900944
:1034A300EDE0FFA3E0FD123D48E4FE9009F2E07574
:1034B300F006A42400F582E5F03400F583E5822EBE
:1034C300F582E435831200260EEEB406DE9009ED94
:1034D300E02406F00C809D22C0E0C0F0C083C082CF
:1034E300C0D075D000C000C004C005C006C00753DB
:1034F3009D7FE59D30E544E59D30E53F90087230C2
:10350300911312077700000CE490087612077700F6
:10351300000CE48011120777000000009008761277
:10352300077700000CE4900882E4F0A304F090080D
:103533006E12077700000000539DDFD007D006D03E
:1035430005D004D000D0D0D082D083D0F0D0E032E8
:10355300904050E04410F0E04420F0E04440F0E0BC
:103563004480F0A3E04402F0E04404F0E04440F07F
:10357300E04480F043D64043D62043D61043D608D8
:1035830053D6FB43D60243D60153DAF753DAFB5340
:10359300DAFD43DA0143FC8053D7F053D57F43D59B
:1035A30040D2C7D2C6D2AF53DABF53DADF53DAEF12
:1035B30043DA8053D9F743D91043D90453D9FD5380
:1035C300D9FE53D7F7229009C2E0706B04F0123C86
:1035D30018C2EF121F7C904097E0443FF0D2FF9057
:1035E30040ACE4F0A3F0A3F0A3F09040987420F073
:1035F300A3E4F0A37406F0A37466F09040A07420D3
:10360300F0A3E4F0A37406F0A37466F09040CA74C8
:1036130001F0A3749BF09040D0740CF0A374D1F02C
:10362300A3E4F0A304F0904091E04480F090409034
:103633007405F0E0547FF0229009C0E0703204F08A
:103643009040B0E0FCA3E0FDE41203097433FBFAFD
:10365300F9783F12015E1203429040B2EEF0A3EFFD
:10366300F09040907406F09009B2E4F0A3740FF068
:103673009009B2E0FEA3E0FF640F4E7009904097FB
:10368300E04401F0D2FFEF640A4E7007904097E0E8
:103693004405F09009B2E07004A3E064057007905C
:1036A3004097E04415F022C0E0C0F0C083C082C060
:1036B300D075D000C000C001C002C003C004C00563
:1036C300C006C007904094E030E0167B017A087989
:1036D300AA121E0E123AF61224F6904094E054FEFB
:1036E300F0904094E030E104E054FDF0D007D006C0
:1036F300D005D004D003D002D001D000D0D0D082E6
:10370300D083D0F0D0E03290404DE04408F0E04464
:1037130004F0E04402F09009F8120777000000007B
:10372300E47FC07E5DFDFC9009F8E0F8A3E0F9A317
:10373300E0FAA3E0FBC312069850219009F8E0FCDD
:10374300A3E0FDA3E0FEA3E02401FFE43EFEE43D8D
:10375300FDE43CFC9009F812076B80C490404DE0F7
:103763004401F0226D635370656564466C743A00DE
:10377300506F7765726C70663A006D63446362756F
:1037830073466C743A006D6349627573466C743AA0
:1037930000567370696E7075743A006D6F746F7252
:1037A3005F46523A004343570043572000436F7527
:1037B3006E7420646F776E3A00539FFE539E7F535F
:1037C3009EBF539EDF439E01439E10539EF7E59F8A
:1037D300547F4460F59FE59F54BF44A0F59FE59F48
:1037E30054DF44C0F59F539FEF439F08C2CDC2CC23
:1037F300D2AF75975D7596C0E597C313FEE5961333
:103803008E95F594759300759201439F012230863E
:103813001D900891E07004A3E06401700790091DF6
:10382300F0A304F0E4900891F0A3F0023B34900875
:1038330091E07004A3E064016026900890E004F036
:10384300700690088FE004F0D3900890E0946490A1
:10385300088FE094004009E4F0A3F0A3F0A304F080
:1038630022C0E0C0F0C083C082C0D075D000C000C9
:10387300C001C002C003C004C005C006C007E5D72D
:1038830030E312123C8A9008A67402F09009C674C1
:1038930007F053D7F7D007D006D005D004D003D014
:1038A30002D001D000D0D0D082D083D0F0D0E0328B
:1038B30090404CE04408F0539DFE539C7F539CBFC3
:1038C300539CDF539CFE539CFDE59D547F4460F560
:1038D3009DE59D54BF44A0F59DE59D54DF44C0F58F
:1038E3009D539DEF439D08D2CBC2CAD2AFE4F5A747
:1038F300F5A6F5A5F5A4F5A375A201439D012290B4
:103903000929E064017029900922E07004A3E064AE
:1039130001701D904037E04440F0904037E020E6CE
:10392300F9904040E0FFA3E0900931CFF0A3EFF01E
:10393300D3900923E09400900922E06480948040AE
:103943000CA3E024FFF0900922E034FFF022904022
:1039530031E054FEF090404CE054BFF053DAFE9057
:103963004030E04420F0E04410F0A3E04408F0E0ED
:103973004404F0904030E04440F0A3E0547FF0E092
:1039830054BFF0E054DFF0E054EFF0C2ABD2AFA38A
:10399300E4F0904031E04401F022C0E0C0F0C08385
:1039A300C082C0D075D000C000C001C002C003C037
:1039B30004C005C006C007123C8A9008A67402F032
:1039C3009009C67407F0C28AD007D006D005D00488
:1039D300D003D002D001D000D0D0D082D083D0F099
:1039E300D0E032900888E004F07006900887E00485
:1039F300F0C3900888E09405900887E06480948081
:103A03004004E4F0A3F0900887E0FEA3E0FFEE702B
:103A13001AEF14601614601314601014600D24045C
:103A230070097B017A0879AA123A7222C0E0C0F0C9
:103A3300C083C082C0D075D000C000C001C002C026
:103A430003C004C005C006C007E5B130E40612395F
:103A53000253B1EFD007D006D005D004D003D00273
:103A6300D001D000D0D0D082D083D0F0D0E032903B
:103A730009C6E06407703A9008A6E0FF6401600499
:103A8300EFB4022D90000BE475F00112058C900049
:103A93000B12051CC394D0E5F09407401490000B5F
:103AA300E4F5F01205F89009C67408F0E49008A64E
:103AB300F0228F828E83E0FAA3E08AC7F5C68F8255
:103AC3008E83A3A3E0FEA3E08EC5F5C48D828C8311
:103AD300E0FEA3E08ECFF5CE8D828C83A3A3E0FE20
:103AE300A3E08ECDF5CC43C101E5C130E7FBAFC404
:103AF300AEC5229009C6E0640570299040B8E0FE87
:103B0300A3E0C3EE940040199040B8E0FEA3E0FFA9
:103B1300E4FCFDFB7A80F9F8D31206824003C281EC
:103B230022D281229009C6E0B40703D28122C28146
:103B33002290091DE07004A3E06401702F9008A394
:103B4300E004F070069008A2E004F0D290C2B7D36C
:103B53009008A3E094F49008A2E09401400EC29070
:103B6300D2B7E4F0A3F090091DF0A3F022904051E6
:103B7300E04480F0A3E04401F0E04402F0904050C0
:103B8300E04440F0E04480F0A3E04401F0E044026C
:103B9300F0E04404F0E04408F090404EE04401F0CB
:103BA300E04402F0E04404F02290083FE0FEA3E08A
:103BB300FFC3900901E09FFF900900E09EF5EB8FA2
:103BC300EA43F902000000000000900845E5EDF02B
:103BD300A3E5ECF09040AEE5EDF0A3E5ECF022EFC9
:103BE300700553C1F78010EFB4080553C1F7801374
:103BF300EFB40C0843C10853C1FB800AEFB40F06AE
:103C030043C10843C104ED700453C1FD22EDB40167
:103C13000343C10222E490081AF0A3F0A3F0A3F037
:103C2300A3F090082012077700000000E490081F1B
:103C3300F090082DF0900828F0A312077700003ABF
:103C430098E490082EF02275EF1875EE0075F300D6
:103C530075F228E4F5EBF5EA43F90275F51175F40D
:103C630010F5F7F5F600000000F5EDF5EC53F9FD5E
:103C730022E4F5F01205F89008A6740CF0900011F8
:103C8300E475F00112058C53E87F904090E4F090C6
:103C930009C67407F0C2FF22AE07E4FDED24B0FFAE
:103CA300123DC87F01123DC87F10123DC8E4FCAF2E
:103CB3000612002A0CECB480F60DEDB408DE229057
:103CC3000853E004F07006900852E004F0C3900833
:103CD30053E09420900852E0944E4006D2B7E4F0AB
:103CE300A3F0228ADD8BDC8EDF8FDEAE04AF058E80
:103CF300E78FE643F9010000000000000000000028
:103D0300AFE6AEE722C0E0C083C082C0D0900868AF
:103D1300E0B40106E4F0900869F053D2FDD0D0D0AE
:103D230082D083D0E03212003E1235531200561275
:103D33003B701231227D017F0F123BE212370A12D0
:103D430038B30237BCAE07ED24B0FF123DC8EE54C2
:103D5300F0C4540F4410FF123DC8EE540F4401FF4A
:103D6300023DC8904059E04420F0D2FF900965E03D
:103D7300FEA3E0FF8EB78FB68EBB8FBA8EBD8FBC0E
:103D830022C2EF1223A5904058E04401F09009228B
:103D9300E4F0A37407F0E4900929F0A3F022904023
:103DA3001DE04480F0E04440F090404FE04410F0C8
:103DB300E04480F0E054BFF022FEAF04EF1313138E
:103DC300541F24B0FF9009F87408F0C28390403365
:103DD300EFF022EF4E60157D807C3EED1DAA04704E
:103DE300011C4A70F6EF1F70EA1E80E722F583E09C
:103DF300FEA3E0FFC3EE648094805008C3E49FFFFA
:103E0300E49EFE2222C3EE648094805008C3E49FA4
:103E1300FFE49EFE22221215349009C67408F0E4D2
:053E23009008A6F0224A
:00000001FF
