:06000000021FF58F99229A
:03000B0002246B61
:0300130002276C55
:03001B000222CCF2
:100023000224F9C3EE648094805008C3E49FFFE484
:040033009EFE2222E9
:10003B0002237E43FD01904054E04401F0D2902214
:03004B000220FC94
:0F00530002094D90404FE04402F0E04401F022DA
:10006300021BCF0203AEE86480F8E933E833601182
:100073000460F0ED33EC337009E8FCE9FDEAFEEBD4
:10008300FF220460DED3EB9FEA9EE99DE8C2E78C82
:10009300F0C2F795F0400CE8CCF8E9CDF9EACEFAD6
:1000A300EBCFFB12037985D0F05804700320D5B34E
:1000B300E80470075002B2D50203B892D5EC04608D
:1000C300F7E4CCC0E0C398F8603B94186008400D97
:1000D300D0E0FB020390E4FBFAC9FC8028E830E49B
:1000E30006E4C9FBE4CAFCE830E305E4C9CACBFC77
:1000F300E854076010F8C3E913F9EA13FAEB13FBAA
:10010300EC13FCD8F130F52FC3E49CFCEF9BFFEE1E
:100113009AFEED99FDD0E0FBEF4E4D4C701222DBC1
:10012300030203B5EC2CFCEF33FFEE33FEED33FD9E
:10013300ED30E7EB020390EF2BFFEE3AFEED39FDD6
:10014300D0E0FB50130BBB00030203B8ED13FDEE2D
:1001530013FEEF13FFEC13FC020390EC4D6011E868
:10016300497017ED33EC3304600DE4FCFFFEFD2210
:10017300E933E8330470F80203AE120379580460DC
:1001830009E4CC248150062850090203B82840030F
:100193000203B5C0E0EB4A7044B98006D0E0FB022D
:1001A30003A4EF4E701CBD8008EBFFEAFEE9FD805F
:1001B300EBE98DF0A4FEE5F0020247E9CDF9EAFE92
:1001C300EBFFEF89F0A4FCE5F0CE89F0A42EFFE469
:1001D30035F0CD89F0A42DFEE435F08067EF4E7045
:1001E30005BD80D780C3EF8BF0A4ACF0EE8BF0A4F9
:1001F3002CFCE435F0F8EF8AF0A42CE5F038FCE4AD
:1002030033CB8DF0A42CFCE5F03BF8EE8AF0A42C64
:10021300FCE5F038F8E433CF89F0A42CFCE5F038A2
:10022300CF3400CE89F0A42FFFE5F03EFEE433C9BE
:100233008DF0A42EFEE5F039CD8AF0A42FFFE5F072
:100243003EFEE43DFD33D0E0FB50070BBB000F0245
:1002530003B8EC2CFCEF33FFEE33FEED33FD02036A
:10026300900203B8EC5D046005E8590470030203CF
:10027300AE120379580460F6EC4860F2EC7004FDAA
:10028300FEFF22C860DB2481C85009C39860025076
:10029300060203B59850CAF582E9294B4A7005ABAB
:1002A300820203A475F0007C1A7880C3EF9BEE9A58
:1002B300ED99400DC3EF9BFFEE9AFEED99FDE842E9
:1002C300F0DC23ACF0D0E0FFD0E0FED0E0FDAB8269
:1002D30020E7101BEB60BAEC2CFCEF33FFEE33FE90
:1002E300ED33FD020390E803F830E705C0F075F045
:1002F30000EF2FFFEE33FEED33FD40B830E7C28051
:10030300AA75F020800E75F010800575F0087D0049
:100313007E007F003392D530D5031206BEEC334006
:1003230010EF33FFEE33FEED33FDEC33FCD5F0ED90
:1003330022E5F0247EA2D513CC92E7CDCEFF22EDA9
:10034300D2E7CD33EC3392D524814006E4FFFEFDA2
:10035300FC22FCE4CFCECDCC24E0501174FF80ED21
:10036300C3CC13CCCD13CDCE13CECF13CF0470F0AB
:1003730030D5DE0206BEE9D2E7C933E833F892D5B9
:10038300EDD2E7CD33EC33FC5002B2D522EC30E7AB
:10039300100FBF000C0EBE00080DBD00040BEB6078
:1003A30014A2D5EB13FCED92E7FD2274FFFCFDFED6
:1003B300FF22E480F8A2D574FF13FC7D80E480EF74
:1003C300BB010CE58229F582E5833AF583E02250EF
:1003D30006E92582F8E622BBFE06E92582F8E22239
:1003E300E58229F582E5833AF583E49322BB010F85
:1003F300F8E58229F582E5833AF583E028F0225077
:1004030009C58229F8E58226F622BBFE09C58229A1
:10041300F8E22582F222F8EA2583F583E99328227C
:10042300F8BB010DE58229F582E5833AF583E8F00F
:10043300225006E92582C8F622BBFE05E92582C8BB
:10044300F222EF8DF0A4A8F0CF8CF0A428CE8DF08B
:10045300A42EFE22A3F8E0C5F025F0F0E582158274
:1004630070021583E0C838F0E822BB010A89828A4A
:1004730083E0F5F0A3E022500687F009E71922BBD9
:10048300FE07E3F5F009E3192289828A83E493F5F1
:10049300F074019322BB0110E58229F582E5833ACA
:1004A300F583E0F5F0A3E0225009E92582F886F010
:1004B30008E622BBFE0AE92582F8E2F5F008E2220B
:1004C300E5832AF583E993F5F0A3E99322BB0107BA
:1004D30089828A83020883500B09C5F027F7C5F088
:1004E3001937F722BBFE0D09F8E325F0F3C5F01920
:1004F300E338F322F889828A8374019325F0C5F0E7
:10050300F8E4933822BB010DC58229C582C5833A1D
:10051300C5830208835011C58229F808E5F026F641
:1005230018F5F0E58236F622BBFE11C58229F808DC
:10053300E225F0F5F0F218E23582F222F8E582299D
:10054300F582E5832AF58374019325F0F5F0E493AE
:100553003822BB010A89828A83F0E5F0A3F0225096
:1005630006F709A7F01922BBFE06F3E5F009F31914
:1005730022F8BB0111E58229F582E5833AF583E888
:10058300F0E5F0A3F0225009E92582C8F608A6F0A9
:1005930022BBFE09E92582C8F2E5F008F222E88FC2
:1005A300F0A4CC8BF0A42CFCE98EF0A42CFC8AF0F4
:1005B300EDA42CFCEA8EF0A4CDA8F08BF0A42DCCF6
:1005C3003825F0FDE98FF0A42CCD35F0FCEB8EF04F
:1005D300A4FEA9F0EB8FF0A4CFC5F02ECD39FEE435
:1005E3003CFCEAA42DCE35F0FDE43CFC2275F0087A
:1005F300758200EF2FFFEE33FECD33CDCC33CCC568
:100603008233C5829BED9AEC99E58298400CF58282
:10061300EE9BFEED9AFDEC99FC0FD5F0D6E4CEFBF4
:10062300E4CDFAE4CCF9A88222B800C1B90059BAE2
:10063300002DEC8BF084CFCECDFCE5F0CBF9781810
:10064300EF2FFFEE33FEED33FDEC33FCEB33FB100A
:10065300D703994004EB99FB0FD8E5E4F9FA227824
:1006630018EF2FFFEE33FEED33FDEC33FCC933C936
:1006730010D7059BE99A4007EC9BFCE99AF90FD840
:10068300E0E4C9FAE4CCFB2275F010EF2FFFEE3360
:10069300FEED33FDCC33CCC833C810D7079BEC9A9F
:1006A300E899400AED9BFDEC9AFCE899F80FD5F028
:1006B300DAE4CDFBE4CCFAE4C8F922C3E49FFFE417
:1006C3009EFEE49DFDE49CFC22EB9FF5F0EA9E4236
:1006D300F0E99D42F0EC6480C864809845F022EB19
:1006E3009FF5F0EA9E42F0E99D42F0E89C45F02236
:1006F300E86010ECA2E713FCED13FDEE13FEEF131D
:10070300FFD8F022BB010789828A830208A550051E
:10071300E9F8020899BBFE05E9F80208B189828A63
:10072300830208BDBB010DE58229F582E5833AF515
:10073300830208A55007E92582F8020899BBFE0742
:10074300E92582F80208B1E58229F582E5833AF5C5
:10075300830208BDBB010789828A830207B550055E
:10076300E9F8020903BBFE05E9F802090F22BB0100
:100773000DE58229F582E5833AF5830207B5500733
:10078300E92582F8020903BBFE07E92582F802097D
:100793000F22BB010789828A830208DA5005E9F830
:1007A3000208CDBBFE05E9F80208E689828A8302C6
:1007B30008F3ECF0A3EDF0A3EEF0A3EFF022A88290
:1007C3008583F0D083D0821207D81207D81207D8B6
:1007D3001207D8E473E493A3C583C5F0C583C8C5E2
:1007E30082C8F0A3C583C5F0C583C8C582C822BB30
:1007F300010789828A830207C15005E9F802091BB0
:10080300BBFE05E9F802093422BB010DE58229F597
:1008130082E5833AF5830207C15007E92582F8028E
:10082300091BBBFE07E92582F802093422D083D0D5
:1008330082F8E4937012740193700DA3A393F87478
:100843000193F5828883E4737402936860EFA3A332
:10085300A380DFEC8EF0A4CCC5F0CCCDF8EFA4CE12
:10086300C5F02DFDE43CFCE8A42EC8C5F03DFDE435
:100873003CFCEFA4FFE5F028FEE43DFDE43CFC2254
:10088300C5F0F8A3E028F0C5F0F8E5821582700200
:100893001583E038F022E6FC08E6FD08E6FE08E6EC
:1008A300FF22E0FCA3E0FDA3E0FEA3E0FF22E2FCC5
:1008B30008E2FD08E2FE08E2FF22E493FC740193E0
:1008C300FD740293FE740393FF22E6FB08E6F90826
:1008D300E6FA08E6CBF822E0F8A3E0F9A3E0FAA3EE
:1008E300E0FB22E2FB08E2F908E2FA08E2CBF82295
:1008F300E493F8740193F9740293FA740393FB225B
:10090300ECF608EDF608EEF608EFF622ECF208ED49
:10091300F208EEF208EFF222D083D082E493F608D5
:10092300740193F608740293F608740393F674043F
:1009330073D083D082E493F208740193F2087402B3
:1009430093F208740393F2740473C0E0C0F0C0839D
:10095300C082C0D075D000C000C001C002C003C0B7
:1009630004C005C006C007E59F20E503020C1890EC
:100973004037E04440F09001C7E0B405369040D6DC
:10098300E0FEA3E07803C333CE33CED8F9FF900063
:1009930025EEF0A3EFF0900025E0FEA3E0FFA3E037
:1009A300FCA3E0FD7B007A0412274A900027EEF0B7
:1009B300A3EFF09001C7E0FF602564086021904039
:1009C300CEE0FEA3E0FF9000E5E0FCA3E0FD7BE0CA
:1009D3007A0112274A9000E5EEF0A3EFF08007902A
:1009E30000E5E4F0A3F012173490403CE0FFA3E0ED
:1009F3009000EECFF0A3EFF09000EEE0FEA3E078DE
:100A030003C333CE33CED8F9FF9000E7EEF0A3EF64
:100A1300F01225FC1220819001C7E06407600312E5
:100A23001F669000D87401F09000CC743FF0A3745B
:100A3300FFF0D39001B8E094009001B7E094004038
:100A43000CA3E024FFF09001B7E034FFF0D3900152
:100A5300B6E094009001B5E09400400CA3E024FFBD
:100A6300F09001B5E034FFF0D39001BAE094009028
:100A730001B9E09400400CA3E024FFF09001B9E039
:100A830034FFF0D39001BCE094009001BBE09400EC
:100A9300400CA3E024FFF09001BBE034FFF0E4FF3F
:100AA300FEFDFC9001BDE0F8A3E0F9A3E0FAA3E0AA
:100AB300FBD31206CC40249001BDE0FCA3E0FDA3D0
:100AC300E0FEA3E0FFEF24FFFFEE34FFFEED34FF73
:100AD300FDEC34FFFC9001BD1207B5D39001B4E0E7
:100AE30094009001B3E09400400CA3E024FFF09045
:100AF30001B3E034FFF09001C7E0B40255E47FFA9C
:100B0300FEFDFC900008E0F8A3E0F9A3E0FAA3E0FF
:100B1300FBC31206E25021900008E0FCA3E0FDA312
:100B2300E0FEA3E02401FFE43EFEE43DFDE43CFCE3
:100B33009000081207B5801A90000274FFF0A374A6
:100B4300FBF09000081207C100000000900015742C
:100B530001F09001C7E064056003020C159001BB2E
:100B6300E0FEA3E0FFBE0916BF60139040D0740AF5
:100B7300F0A374AEF0A3E4F0A304F0020C15BE08D6
:100B830016BF98139040D07410F0A37405F0A3E43B
:100B9300F0A37402F0807BBE0716BFD0139040D041
:100BA300741AF0A374B4F0A3E4F0A37406F08062A3
:100BB300BE0716BF08139040D0742AF0A374B9F08F
:100BC300A3E4F0A37410F08049BE0516BFDC1390B4
:100BD30040D0743AF0A374BFF0A3E4F0A3741EF002
:100BE3008030BE0416BFB0139040D07440F0A3749D
:100BF30016F0A3E4F0A37424F08017EF64014E70A1
:100C0300119040D0744AF0A374C5F0A3E4F0A37428
:100C130031F0539FDFD007D006D005D004D003D0E6
:100C230002D001D000D0D0D082D083D0F0D0E03237
:100C3300E4900079F0A3F0A3F0A3F0A3F0A3F09065
:100C4300009BF0A3F0A3F0A3F0A3F0A3F090007F28
:100C53007456F0A374C0F0E4A3F0A3F0A3F0A3F0E0
:100C6300A3F09000C9F0A3F09000B91207C10000EF
:100C730000009000BD1207C100000000E49000C511
:100C8300F0A3F0A3F0A3F09000C11207C10000008D
:100C930000E4900086F0A3F0A37403F0A374E8F0DB
:100CA300E4A3F0A3F0A3F0A3F0A3F0A3F0A3F0A3B5
:100CB300F0A3F0A3F0A3742FF0A374A2F0E4A3F0C5
:100CC300A37408F0A3742AF0E4A3F0A3F09000A7A0
:100CD300F0A3F0A3F0A3F0A37402F0A3749AF0A31B
:100CE3007406F0A374F0F0E49000A1F0A3F0900078
:100CF300A1F0A3F09000A1F0A3F09000AFF0A3F057
:100D0300A3F0A3F0A3F0A3F09000B7F0A3F090003A
:100D1300B5F0A3F09001C1F0A3F0A3F0A3F090000D
:100D23001BF0A3F0A3F0A3F0A3F0A3F0900023F033
:100D3300A3F0900029F0A3F0900021F0A3F090001D
:100D430025F0A3F090002BF0A3F0900027F0A3F080
:100D53009000EEF0A3F0A3F0A3F0A3F0A3F09000B3
:100D6300E7F0A3F0900065F0A3F09001B7F0A3F0D3
:100D73009001B5F0A3F09001B9F0A3F09001BD127A
:100D830007C100000000E49001BBF0A3F09001CA8A
:100D93001207C100003FFFE49001C8F0A3F09001E7
:100DA300D01207C100003FFFE49001CEF0A3F09002
:100DB30001D61207C100003FFFE49001D4F0A3F075
:100DC3009001DAF0A3F09001DEF0A3F09001DC745F
:100DD30003F0A374E8F09000691207C1000000005B
:100DE300E490006DF09000721207C10000000090C3
:100DF300006E1207C100001387E49000CCF0A3F04B
:100E0300A3F0A3F0A3F0A3743CF0A3E4F0A3743C19
:100E1300F0E4A3F0A3F0A3F0A37402F0E49000DDE8
:100E2300F0A3F0A3F0A3F0A3F0A3F090014BF0A381
:100E3300F0A3F0A3F0A3F0A3F0A3F0A3F0A3F0A317
:100E4300F0A3F0A3F0A3F0A3F0A3F0A3F0A3F0A307
:100E5300F0A3F0A3F0A3F0A3F0A3F0A3F0A3F0A3F7
:100E6300F0A3F0A3F0A3F0A3F0A3F0A3F0A3F0A3E7
:100E7300F0A3F0A3F0A3F0A3F0A3F0A3F0A3F0A3D7
:100E8300F0A3F0A3F0A3F0A3F0A3F0A3F0A3F0A3C7
:100E9300F0A31207C100000000E4900181F0A3F069
:100EA300A3F0A3F0A3F0900047F0900067F0A3F045
:100EB30090004804F0E4900061F0A3F090004D121C
:100EC30007C100000000E4900017F0900019F090B3
:100ED30000EAF0A3F09000E9F0229040647424F05B
:100EE300D2EF904094E054FEF0904093E04401F040
:100EF300D2BFC2BE904090E4F0A3F09040ACF0A308
:100F0300F0A3F0A3F09040B8F0A3F09040BEF0A39C
:100F1300F09040BCF0A3F090408EF09040BAF0A364
:100F2300F09040C0F0A37403F09040B014F0A374A9
:100F3300EDF09040D4741FF0A374FFF090409874C8
:100F430003F0A37433F0A3E4F0A37414F0A3740CBC
:100F5300F0A374CCF0A374F3F0A37434F0A374037C
:100F6300F0A37433F0A3E4F0A37414F0A3747DF03E
:100F7300A3746FF0A37482F0A37491F09040D874BB
:100F83007CF0A37448F0A37406F0A374F3F0A3E415
:100F9300F0A37439F0A3E4F0A3F09040CC04F0A3E1
:100FA3007447F09040CAE4F0A37440F09040C874D2
:100FB30008F0A3740AF09040D07405F0A37457F0BE
:100FC300A3E4F0A3F0904097E04480F0E04440F0C5
:100FD3009040C4746CF0A374CBF0A37401F0A374B9
:100FE30057F0904091E04480F0E054BFF09040907F
:100FF300E04408F09040B4E4F0A3F0A37480F0A3BD
:101003007403F0904091E054DFF0E054EFF090016E
:10101300DEE07004A3E064017034904095E0444046
:10102300F0E0547FF09001C8E0FFA3E09040FCCFD4
:10103300F0A3EFF0904095E04480F0E054BFF090CF
:1010430001CEE0FFA3E09040FCCFF0A3EFF043FD1F
:1010530001904054E04401F0D290229001C7E0FF98
:1010630064056008EF640460030211CB9040E0E084
:10107300FEA3E0FF120026900022EE8FF01205740B
:101083009040E2E0FEA3E0FF120026900024EE8FE2
:10109300F01205749040E0E0FEA3E0FFC3E49FFF7D
:1010A300E49EFEA3E0FCA3E0FDC3EF9DFFEE9CFEE8
:1010B300120026900026EE8FF0120574900028127D
:1010C3000498FFAEF0900022120498FDACF0D39F79
:1010D300EC9E4009900028EC8DF012057490002AD4
:1010E300120498FFAEF0900024120498FDACF0D3E4
:1010F3009FEC9E400990002AEC8DF012057490003D
:101103002C120498FFAEF0900026120498FDACF068
:10111300D39FEC9E400990002CEC8DF01205749047
:101123000009E475F001120508900009120498D330
:101133009480E5F0943E4010900009E4F5F0120528
:1011430074900008E4120423900006120498FFAE82
:10115300F0900022120498C39FE5F09E502C90005B
:1011630006120498FFAEF0900024120498C39FE582
:10117300F09E5016900006120498FFAEF0900026E1
:10118300120498C39FE5F09E403E9000087401123C
:1011930003F09000081203C3C39403402B90002272
:1011A300E4F5F0120574900024E4F5F01205749050
:1011B3000026E4F5F0120574900008E4120423906D
:1011C30000767401F012271422904037E04440F077
:1011D300904037E020E6F99001CAE0F8A3E0F9A3D4
:1011E300E0FAA3E0FBC000C001C002C00390403896
:1011F300E0540FFEA3E07803C333CE33CED8F9FF18
:10120300E4FCFDD003D002D001D000EB2FFFEA3E77
:10121300FEED39FDEC38FC9001CA1207B59001CA06
:10122300E0FCA3E0FDA3E0FEA3E0FF78041206F3D5
:101233009001C8EEF0A3EFF0A3E0FCA3E0FDA3E070
:10124300FEA3E0FFC006C0079001C8E0FEA3E0FBD9
:10125300AA06EA3395E0F9F8D007D006C3EF9BFF5F
:10126300EE9AFEED99FDEC98FCA31207B59001D020
:10127300E0F8A3E0F9A3E0FAA3E0FBC000C001C0DB
:1012830002C00390403AE0540FFEA3E07803C33357
:10129300CE33CED8F9FFE4FCFDD003D002D001D089
:1012A30000EB2FFFEA3EFEED39FDEC38FC9001D058
:1012B3001207B59001D0E0FCA3E0FDA3E0FEA3E09C
:1012C300FF78041206F39001CEEEF0A3EFF0A3E053
:1012D300FCA3E0FDA3E0FEA3E0FFC006C00790016E
:1012E300CEE0FEA3E0FBAA06EA3395E0F9F8D007C7
:1012F300D006C3EF9BFFEE9AFEED99FDEC98FCA39D
:101303001207B59001DBE004F070069001DAE00407
:10131300F09001DCE0FEA3E0FFD39001DBE09FEE61
:101323006480F89001DAE064809840089001DEE47C
:10133300F0A304F0229001E0EBF0A3EAF0A3E9F0BC
:10134300A3EDF09001E0E0FBA3E0FAA3E0F91207BC
:1013530007EF2401FFE43EFEE43DFDE43CFC1207FD
:10136300579001E0E0FBA3E0FAA3E0F99000051237
:101373000727120795C31206E24003021452900195
:10138300E0E0FBA3E0FAA3E0F9900009120727E4E9
:101393007BC8FAF9F8D31206E240269001E0E0FB9D
:1013A300A3E0FAA3E0F9900009120727EF2401FF55
:1013B300E43EFEE43DFDE43CFC900009120771802D
:1013C300599001E0E0FBA3E0FAA3E0F990000912D1
:1013D3000727E47BC8FAF9F8D31206E2503C9001E0
:1013E300E0E0FBA3E0FAA3E0F9900009120727E489
:1013F3007BC9FAF9F8D31206E2401F9001E0E0FB43
:10140300A3E0FAA3E0F990000912080C0000000021
:10141300B2B690000474011203F09001E0E0FBA364
:10142300E0FAA3E0F99000041203C3FD9001E3E0A6
:1014330075F002A4FFC3ED9FE5F06480F874809813
:10144300405590000912080C000000CAD2B6229041
:1014530001E0E0FBA3E0FAA3E0F9900005120727FF
:10146300120795C31206E2402E9001E0E0FBA3E0D1
:10147300FAA3E0F91207F2000000009001E0E0FB9C
:10148300A3E0FAA3E0F9900004E412042390000916
:1014930012080C00000000229001C7E0B40A0040CB
:1014A300030215F99014AEF82828730214CC021421
:1014B300E402150402153302155A02155D0215885C
:1014C3000215F90215E4021517121AB8120EDD12ED
:1014D30026D29001C77401F09001B7F0A3742CF0E9
:1014E300221221EA9001B7E07002A3E06003021523
:1014F300F99001C77403F09001BBE4F0A37402F008
:10150300229001B5E07002A3E060030215F91222F4
:101513005B02199AE490002DF0A3F09001C77403C5
:10152300F09001BBE4F0A37402F090001914F022D0
:10153300121E399001BBE07002A3E070109001C746
:101543007404F09001BD1207C1000027109000D071
:10155300E4F0A3740F8025021CB89000CCE0700265
:10156300A3E070109001C77406F09001BD1207C18B
:10157300000027109000D0E4F0A3743CF0A3E4F043
:10158300A3743CF022C39000E6E094559000E5E09C
:101593006480948D40149001BDE0FCA3E0FDA3E0C2
:1015A300FEA3E0FFEC4D4E4F700E904090E4F0C26E
:1015B300EF9001C77408F022D39000CDE09400901F
:1015C30000CCE064809480402D9001C77405F0E462
:1015D30090001BF0A3F09040AE7411F0A37459F087
:1015E30022904090E4F0C2EFC2FF9000D8E0B40133
:1015F30005E49001C7F0229001C7E0640260030292
:101603001733900006E060030217339040C2E0FFF7
:10161300A3E0900000CFF0A3EFF0900000E0FAA366
:10162300E0FBC3941EEA648094075031900010E0FD
:101633006007900005E0B4031D9000081207C10085
:101643000000009000107401F0900005E0B4030660
:10165300900016E004F09000057401F022D3EB949F
:10166300E4EA6480947850030216F2900001E09457
:101673001C900000E0648094875074900005E0FFA4
:1016830064016005EF6403705F900008E0FCA3E071
:10169300FDA3E0FEA3E02401FFE43EFEE43DFDE400
:1016A3003CFC9000081207B57E007F117C007D088A
:1016B30012257F900002EEF0A3EFF0900007E00404
:1016C300F0900010E0B40102E4F0900005E0FFB4F4
:1016D3000107E4900004F0800AEFB40306900004CD
:1016E3007401F0E4900016F09000057402F022D328
:1016F300900001E094E2900000E0648094F84030B0
:10170300900010E06007900005E0B4011D90000810
:101713001207C1000000009000107401F090000552
:10172300E0B40106900016E004F09000057403F0A5
:10173300229001C7E0FF64056008EF6406600302BE
:10174300186C90001BE0FEA3E0FFEE600302186C30
:10175300EF14605904600302186CD39000E6E09420
:10176300889000E5E064809488500302186C900030
:101773001BE4F0A304F09000297408F0A374ACF008
:101783009040AE7408F0A374ACF09040CEE0FFA399
:10179300E09000CECFF0A3EFF0E4900021F0A3F0AF
:1017A300900029E0FEA3E0FF8EED8FEC2290002253
:1017B300E004F07006900021E004F0D3900022E0F2
:1017C3009405900021E094004038E4F0A3F09040A9
:1017D300AEE0FEA3E09409EE942750269040AEE0DD
:1017E300FFA3E0900029CFF0A3EFF0E02403F090F3
:1017F3000029E03400F0E0FFA3E09040AECFF0A377
:10180300EFF09040DAE0FEA3E0C394A9EE94095010
:101813001B9040DAE0FFA3E0900049CFF0A3EFF084
:10182300E0240AF0900049E0340080289040DAE098
:10183300FEA3E0D394BDEE94099040DA4024E0FF88
:10184300A3E0900049CFF0A3EFF0E024F6F090007E
:1018530049E034FFF0E0FFA3E09040DACFF0A3EFDC
:10186300F0227409F0A374B3F022904088E4F0A34B
:1018730004F0A3F0A37411F0A37406F0A37466F04C
:10188300904090E04440F0E054DFF0E04410F090EA
:1018930040987403F0A37433F0A3E4F0A37414F03A
:1018A300A3740CF0A374CCF0A374F3F0A37434F01A
:1018B300A37403F0A37433F0A3E4F0A37414F0A3AC
:1018C300747DF0A3746FF0A37482F0A37491F0900D
:1018D30040D8747CF0A37448F0A37406F0A374F3A7
:1018E300F0A3E4F0A37439F0A3E4F0A3F09040CCA8
:1018F30004F0A37447F09040CAE4F0A37440F0905E
:1019030040C87408F0A3740AF09040ACE4F0A3F06C
:101913009000297411F0A37459F09040AE7411F043
:10192300A37459F075ED11F5EC9000197403F09060
:1019330001C77405F0E490001BF0A3F0D3900003FB
:10194300E0942C900002E094019040D04018744A37
:10195300F0A374C5F0A3E4F0A37431F09001BBE4E9
:10196300F0A3740AF022742AF0A374B9F0A3E4F08C
:10197300A37410F09000297422F0A374B2F0904085
:10198300AE7422F0A374B2F075ED22F5EC9001BBB6
:101993007407F0A304F022900004E0FF70069000A7
:1019A30015E07009900016E0C39403400C9001C742
:1019B3007409F0E49001C5F022EF64016003021A98
:1019C30096C2B79040B0E0FCA3E0FDE41203097BAC
:1019D300A47A70797D783F12015E1203429040B27F
:1019E300EEF0A3EFF09040907406F0900002E0FE5A
:1019F300A3E0FFC39432EE940050129001B574013A
:101A0300F0A3742CF090001A7401F08043C3EF9498
:101A13002CEE940150129001B57401F0A374F4F00C
:101A230090001A7402F08028C3EF9458EE94029049
:101A330001B5500F7403F0A37484F090001A74037B
:101A4300F0800D740FF0A374A0F090001A7404F0EA
:101A5300900017E004F0E0FFC39404401B900003E0
:101A6300E09464900002E09400500D9001C7740963
:101A7300F0E49001C5F08015EFD39406400F900079
:101A8300767410F09001C77407F0122714E49001E4
:101A9300C3F022900004E0701BD3900003E0943C59
:101AA300900002E09400400C900007E0D3940340C0
:101AB3000312186D22E4900076F0900079F0A3F001
:101AC300A3F0A3F0A3F0A3F090009BF0A3F0A3F086
:101AD300A3F0A3F0A3F090007F7456F0A374C0F0BA
:101AE300E4A3F0A3F0A3F0A3F0A3F0A3F0A3F0A367
:101AF3007403F0A374E8F0E490008CF0A3F0A3F077
:101B0300A3F0A3F0A3F0A3F0A3F0A3742FF0A374A6
:101B1300A2F0E4A3F0A37408F0A3742AF0E4A3F002
:101B2300A3F09000B91207C1000000009000BD129D
:101B330007C100000000E49000C5F0A3F0A3F0A3E8
:101B4300F09000C11207C100000000E49000A7F06C
:101B5300A3F0A3F0A3F0A37402F0A3749AF0A37408
:101B630006F0A374F0F0E49000A1F0A3F09000A1BC
:101B7300F0A3F09000A1F0A3F09000AFF0A3F0A3C6
:101B8300F0A3F0A3F0A3F09000B7F0A3F090001B34
:101B9300F0A3F0A3F0A3F0A3F0A3F0900023F0A32D
:101BA300F0900029F0A3F0900021F0A3F09000251D
:101BB300F0A3F0900019F0900017F09001C1F0A38A
:101BC300F0A3F0A3F09000E5F0A3F022C0E0C0F092
:101BD300C083C082C0D075D000C000C001C002C0A5
:101BE30003C004C005C006C007309922C299900102
:101BF30084E0FFA3E0C39F5015E004F0E025E02458
:101C03005FF582E43401F583A3E0FF12000320981B
:101C130003021C9DC298AF99900173E4F0A3EFF007
:101C2300900173E0FCA3E0FD900176E025E0FF90D6
:101C33000175E033FE744B2FF58274013EF583EC9E
:101C4300F0A3EDF090014BE07004A3E064AA702BC5
:101C5300900067F0A3F0900176E004F07006900125
:101C630075E004F090014DE07004A3E06455701238
:101C730090014DF0A3F09001758004900175E4F09C
:101C8300A3F0C3900176E0940A900175E0940040BC
:101C930009E4F0A3F090018304F0D007D006D00547
:101CA300D004D003D002D001D000D0D0D082D083D2
:101CB300D0F0D0E0329001C4E06003021D8C04F048
:101CC300904090E04404F0E054FDF09040B8E4F01C
:101CD300A3F0900017E0FFC39404401D9040ACE4D0
:101CE300F0A3F0900029742BF0A3745FF09040AE42
:101CF300742BF0A3745FF0803BEFC394019040AC6E
:101D0300401AE4F0A3F09000297422F0A374B2F017
:101D13009040AE7422F0A374B2F08018E4F0A3F004
:101D23009000297408F0A374ACF09040AE7408F0EE
:101D3300A374ACF09040987403F0A37433F0A3E45D
:101D4300F0A37414F09040A07403F0A37433F0A3D1
:101D5300E4F0A37414F09040D07405F0A37457F02A
:101D6300A3E4F0A3F0904088F0A304F0A3F0A374DD
:101D730011F0A37406F0A37466F0904090E0444021
:101D8300F0E054DFF0E04410F09001BB7402F0A3E4
:101D93007458F09001C77405F022904037E04480F6
:101DA300F0E054DFF0904035E054FBF0E04410F0F5
:101DB300E054F7F090404FE04410F0904052E0447C
:101DC30008F0904036E04440F0904051E04480F009
:101DD300904036E04410F0904051E04420F09040B1
:101DE30036E04408F0904051E04410F0904036E073
:101DF3004404F0904051E04408F0904036E044023F
:101E0300F0904051E04401F0904036E04401F090FE
:101E130040497433F0904048F0904037E054FEF06E
:101E2300E054FDF0904035E054FEF0E054FDF0C284
:101E3300C5C2C4D2AF229001C2E06003021ED10426
:101E4300F0C2EF120EDD904097E0443FF0D2FF90D6
:101E530040ACE4F0A3F0A3740DF0A37403F090403E
:101E6300D07405F0A37457F0A3E4F0A3F090409866
:101E73007408F0A3E4F0A3F0A374CCF09040A07432
:101E830008F0A3E4F0A3F0A374CCF09040BEE4F018
:101E9300A3F09040BCF0A3F090002DE0FCA3E0FD84
:101EA300E4120309E4FBFA793478431202677B00F6
:101EB3007AFE79FF784612015E1203429040B8EE33
:101EC300F0A3EFF0904090740DF0E0547FF0229077
:101ED30001E41207C1000000001227259001E4125B
:101EE30007C100000000E47F107E27FDFC9001E4A1
:101EF300E0F8A3E0F9A3E0FAA3E0FBC31206E25083
:101F0300219001E4E0FCA3E0FDA3E0FEA3E02401B3
:101F1300FFE43EFEE43DFDE43CFC9001E41207B522
:101F230080C41228171227AD9000D91207C10000F0
:101F33000000E4900031F0A3F09000CB04F0E490B3
:101F43000077F0A3F090001AF09000F4F0A3F09063
:101F530001DEE07002A3E070051211CC80F11214CF
:101F63009B80EC9000CBE0B40152A3740DF0A374FA
:101F730055F0900032E004F07006900031E004F078
:101F8300D3900032E09488900031E094134062E4EF
:101F9300F0A3F09000D9E0FCA3E0FDA3E0FEA3E0F2
:101FA3002401FFE43EFEE43DFDE43CFC9000D91235
:101FB30007B5E49000CBF0A3F0A3F022900078E003
:101FC30004F07006900077E004F0E49000CCF0A3F6
:101FD300F0D3900078E094E0900077E0942E4011E5
:101FE300E4F0A3F09000CB04F0A3740DF0A37455B8
:101FF300F022787FE4F6D8FD75812002203C021E92
:10200300D2E493A3F8E493A34003F68001F208DF3C
:10201300F48029E493A3F85407240CC8C333C454AD
:102023000F4420C8834004F456800146F6DFE48061
:102033000B010204081020408090278DE47E019359
:1020430060BCA3FF543F30E509541FFEE493A36033
:10205300010ECF54C025E060A840B8E493A3FAE48E
:1020630093A3F8E493A3C8C582C8CAC583CAF0A3DF
:10207300C8C582C8CAC583CADFE9DEE780BE90004F
:1020830076E012083020A70020BE0120C80220DC21
:102093000420D20820B40A20AA0C20F01020E61253
:1020A300000020FBC2B6227B017A0079697D0180A2
:1020B300447B017A0079697D02803A7B017A007959
:1020C300697D0380307B017A0079697D0480267BFA
:1020D300017A0079697D05801C7B017A0079697D2D
:1020E3000680127B017A0079697D0780087B017A7B
:1020F3000079697D0812133822C0E0C0F0C083C0A4
:1021030082C0D075D000C000C004C005C006C0079F
:10211300539D7FE59D30E544E59D30E53F900051BB
:102123003091131207C100000CE49000551207C14F
:1021330000000CE480111207C1000000009000555C
:102143001207C100000CE4900061E4F0A304F090D6
:10215300004D1207C100000000539DDFD007D006D9
:10216300D005D004D000D0D0D082D083D0F0D0E03E
:1021730032904050E04410F0E04420F0E04440F05E
:10218300E04480F0A3E04402F0E04404F0E0444083
:10219300F0E04480F043D64043D62043D61043D6E4
:1021A3000853D6FB43D60243D60153DAF753DAFB7F
:1021B30053DAFD43DA0143FC8053D7F053D57F4311
:1021C300D540D2C7D2C6D2AF53DABF53DADF53DA20
:1021D300EF43DA8053D9F743D91043D90453D9FDD8
:1021E30053D9FE53D7F7229001C1E0703304F09026
:1021F30040B0E0FCA3E0FDE41203097433FBFAF9F9
:10220300783F12015E1203429040B2EEF0A3EFF06A
:102213009040907406F09001B77401F0A3742CF011
:102223009001B7E0FEA3E0FFBE010CBF2C09904074
:1022330097E04401F0D2FFEF64C84E7007904097D7
:10224300E04405F09001B7E07004A3E06464700714
:10225300904097E04415F0229001C3E0706A04F0C7
:102263001226A0C2EF120EDD904097E0443FF0D259
:10227300FF9040ACE4F0A3F0A3F0A3F09040987477
:1022830020F0A3E4F0A37406F0A37466F09040A0DA
:102293007420F0A3E4F0A37406F0A37466F09040F6
:1022A300CA7402F0A3F09040D07410F0A37405F048
:1022B300A3E4F0A37402F0904091E04480F09040D6
:1022C30090740DF0E0547FF022C0E0C0F0C083C0F2
:1022D30082C0D075D000C000C001C002C003C004DA
:1022E300C005C006C007904094E030E0137B017A3C
:1022F30000797912105E1215FA904094E054FEF0C2
:10230300904094E030E104E054FDF0D007D006D0D3
:1023130005D004D003D002D001D000D0D0D082D0D9
:1023230083D0F0D0E032539FFE539E7F539EBF5322
:102333009EDF439E01439E10539EF7E59F547F44C7
:1023430060F59FE59F54BF44A0F59FE59F54DF448C
:10235300C0F59F539FEF439F08C2CDC2CCD2AF7548
:10236300975D7596C0E597C313FEE596138E95F5B5
:1023730094759300759201439F0122C0E0C0F0C0A1
:1023830083C082C0D075D000C000C001C002C003AA
:10239300C004C005C006C007E5D730E312122714F6
:1023A3009000767402F09001C77407F053D7F7D00A
:1023B30007D006D005D004D003D002D001D000D07E
:1023C300D0D082D083D0F0D0E03290404CE04408AB
:1023D300F0539DFE439C80439C40439C20539CFEB2
:1023E300539CFDE59D547F4460F59DE59D54BF449A
:1023F300A0F59DE59D54DF44C0F59D539DEF439D9E
:1024030008D2CBC2CAD2AFE4F5A7F5A6F5A5F5A4C9
:10241300F5A375A201439D01229000FFE0640170C2
:10242300299000F8E07004A3E06401701D90403728
:10243300E04440F0904037E020E6F9904040E0FF70
:10244300A3E0900107CFF0A3EFF0D39000F9E0945D
:10245300009000F8E064809480400CA3E024FFF037
:102463009000F8E034FFF022C0E0C0F0C083C082E7
:10247300C0D075D000C000C001C002C003C004C0FA
:1024830005C006C0071227149000767402F090016D
:10249300C77407F0C28AD007D006D005D004D00392
:1024A300D002D001D000D0D0D082D083D0F0D0E001
:1024B30032EF146012146017146021240370289003
:1024C300404FE0547F800E90404FE0547F80139044
:1024D300404FE04480F0E054BFF0800B90404FE069
:1024E3004480F0E04440F090404FE030000444105A
:1024F300F02254EFF022C0E0C0F0C083C082C0D00D
:1025030075D000C000C001C002C003C004C005C034
:1025130006C007E5B130E40612241C53B1EFD0071F
:10252300D006D005D004D003D002D001D000D0D043
:10253300D082D083D0F0D0E0329001C7E06407703E
:102543003A900076E0FF64016004EFB4022D90003E
:102553000BE475F00112050890000B120498C39464
:10256300D0E5F09407401490000BE4F5F0120574E5
:102573009001C77408F0E4900076F0228F828E8376
:10258300E0FAA3E08AC7F5C68F828E83A3A3E0FE99
:10259300A3E08EC5F5C48D828C83E0FEA3E08ECFCD
:1025A300F5CE8D828C83A3A3E0FEA3E08ECDF5CC84
:1025B30043C101E5C130E7FBAFC4AEC52290405132
:1025C300E04480F0A3E04401F0E04402F090405086
:1025D300E04440F0E04480F0A3E04401F0E0440232
:1025E300F0E04404F0E04408F090404EE04401F091
:1025F300E04402F0E04404F022900066E004F0704E
:1026030006900065E004F0C3900066E09405900036
:1026130065E0648094804004E4F0A3F0900065E0FA
:102623007002A3E070097B017A00797912253C22BC
:1026330090401EE03000054420F0800354DFF07C1E
:10264300807D00120856E47BE87A03F9F812062C21
:10265300C374FC9F74FF9E904027F0904026E05483
:10266300FDF0E04401F022EF700553C1F78010EF55
:10267300B4080553C1F78013EFB40C0843C10853E2
:10268300C1FB800AEFB40F0643C10843C104ED70D8
:102693000453C1FD22EDB4010343C10222E49000BF
:1026A30002F0A3F0A3F0A3F0A3F09000081207C177
:1026B30000000000E4900007F0900015F090001077
:1026C300F0A31207C100001D4CE4900016F0227520
:1026D300EF0875EE0075F30075F206E4F5EBF5EA25
:1026E30043F90275F52275F4B375F7F275F6FD003B
:1026F300000000F5EDF5EC53F9FD22E4F5F01205C9
:1027030074900076740CF0900011E475F0011205DA
:102713000853E87F904090E4F09001C77407F0C23B
:10272300FF22C200122801C200122835C20012285B
:1027330026D2007F021224B4D200D2011227CCC2C7
:1027430000E4FFFE0226338ADD8BDC8EDF8FDEAEF4
:1027530004AF058EE78FE643F90100000000000097
:1027630000000000AFE6AEE722C0E0C083C082C035
:10277300D0900047E0B40106E4F0900048F053D253
:10278300FDD0D0D082D083D0E0325400330000019A
:10279300F403E808980B5410CC170C1C841EDC219E
:1027A3006641018600410187000012003E12217438
:1027B3001200561225C0121D9D7D017F0F12266A3D
:1027C3001227EA1223CD02232990404FE03000055F
:1027D3004402F0800354FDF090404FE03001044484
:1027E30001F02254FEF02290404DE04408F0E04412
:1027F30004F0E054FDF075F83FE04401F0223000AE
:102803000543F110800353F1EF30000443F1082234
:1028130053F1F722120C339001C77408F0E49000CF
:1028230076F02290401EE03000044480F022547F72
:10283300F02290401EE03000044440F02254BFF0E8
:012843002272
:00000001FF
